{
	"contracts/Override.sol": {
		"A": {
			"abi": [
				{
					"anonymous": false,
					"inputs": [
						{
							"indexed": false,
							"internalType": "string",
							"name": "_myString",
							"type": "string"
						}
					],
					"name": "MyEvent",
					"type": "event"
				},
				{
					"inputs": [],
					"name": "funA",
					"outputs": [],
					"stateMutability": "nonpayable",
					"type": "function"
				}
			],
			"devdoc": {
				"kind": "dev",
				"methods": {},
				"version": 1
			},
			"evm": {
				"assembly": "    /* \"contracts/Override.sol\":59:185  contract A {... */\n  mstore(0x40, 0x80)\n  callvalue\n  dup1\n  iszero\n  tag_1\n  jumpi\n  0x00\n  dup1\n  revert\ntag_1:\n  pop\n  dataSize(sub_0)\n  dup1\n  dataOffset(sub_0)\n  0x00\n  codecopy\n  0x00\n  return\nstop\n\nsub_0: assembly {\n        /* \"contracts/Override.sol\":59:185  contract A {... */\n      mstore(0x40, 0x80)\n      callvalue\n      dup1\n      iszero\n      tag_1\n      jumpi\n      0x00\n      dup1\n      revert\n    tag_1:\n      pop\n      jumpi(tag_2, lt(calldatasize, 0x04))\n      shr(0xe0, calldataload(0x00))\n      dup1\n      0x8e5159b0\n      eq\n      tag_3\n      jumpi\n    tag_2:\n      0x00\n      dup1\n      revert\n        /* \"contracts/Override.sol\":113:183  function funA() public virtual {... */\n    tag_3:\n      tag_4\n      tag_5\n      jump\t// in\n    tag_4:\n      stop\n    tag_5:\n        /* \"contracts/Override.sol\":159:176  MyEvent(\"from A\") */\n      0x695a9e8aa4a54f62feafe2a96f107e287ede90c04f975155faf83eacbb68d27c\n      mload(0x40)\n      tag_7\n      swap1\n      tag_8\n      jump\t// in\n    tag_7:\n      mload(0x40)\n      dup1\n      swap2\n      sub\n      swap1\n      log1\n        /* \"contracts/Override.sol\":113:183  function funA() public virtual {... */\n      jump\t// out\n        /* \"#utility.yul\":7:176   */\n    tag_9:\n        /* \"#utility.yul\":91:102   */\n      0x00\n        /* \"#utility.yul\":125:131   */\n      dup3\n        /* \"#utility.yul\":120:123   */\n      dup3\n        /* \"#utility.yul\":113:132   */\n      mstore\n        /* \"#utility.yul\":165:169   */\n      0x20\n        /* \"#utility.yul\":160:163   */\n      dup3\n        /* \"#utility.yul\":156:170   */\n      add\n        /* \"#utility.yul\":141:170   */\n      swap1\n      pop\n        /* \"#utility.yul\":7:176   */\n      swap3\n      swap2\n      pop\n      pop\n      jump\t// out\n        /* \"#utility.yul\":182:338   */\n    tag_10:\n        /* \"#utility.yul\":322:330   */\n      0x66726f6d20410000000000000000000000000000000000000000000000000000\n        /* \"#utility.yul\":318:319   */\n      0x00\n        /* \"#utility.yul\":310:316   */\n      dup3\n        /* \"#utility.yul\":306:320   */\n      add\n        /* \"#utility.yul\":299:331   */\n      mstore\n        /* \"#utility.yul\":182:338   */\n      pop\n      jump\t// out\n        /* \"#utility.yul\":344:709   */\n    tag_11:\n        /* \"#utility.yul\":486:489   */\n      0x00\n        /* \"#utility.yul\":507:573   */\n      tag_16\n        /* \"#utility.yul\":571:572   */\n      0x06\n        /* \"#utility.yul\":566:569   */\n      dup4\n        /* \"#utility.yul\":507:573   */\n      tag_9\n      jump\t// in\n    tag_16:\n        /* \"#utility.yul\":500:573   */\n      swap2\n      pop\n        /* \"#utility.yul\":582:675   */\n      tag_17\n        /* \"#utility.yul\":671:674   */\n      dup3\n        /* \"#utility.yul\":582:675   */\n      tag_10\n      jump\t// in\n    tag_17:\n        /* \"#utility.yul\":700:702   */\n      0x20\n        /* \"#utility.yul\":695:698   */\n      dup3\n        /* \"#utility.yul\":691:703   */\n      add\n        /* \"#utility.yul\":684:703   */\n      swap1\n      pop\n        /* \"#utility.yul\":344:709   */\n      swap2\n      swap1\n      pop\n      jump\t// out\n        /* \"#utility.yul\":715:1134   */\n    tag_8:\n        /* \"#utility.yul\":881:885   */\n      0x00\n        /* \"#utility.yul\":919:921   */\n      0x20\n        /* \"#utility.yul\":908:917   */\n      dup3\n        /* \"#utility.yul\":904:922   */\n      add\n        /* \"#utility.yul\":896:922   */\n      swap1\n      pop\n        /* \"#utility.yul\":968:977   */\n      dup2\n        /* \"#utility.yul\":962:966   */\n      dup2\n        /* \"#utility.yul\":958:978   */\n      sub\n        /* \"#utility.yul\":954:955   */\n      0x00\n        /* \"#utility.yul\":943:952   */\n      dup4\n        /* \"#utility.yul\":939:956   */\n      add\n        /* \"#utility.yul\":932:979   */\n      mstore\n        /* \"#utility.yul\":996:1127   */\n      tag_19\n        /* \"#utility.yul\":1122:1126   */\n      dup2\n        /* \"#utility.yul\":996:1127   */\n      tag_11\n      jump\t// in\n    tag_19:\n        /* \"#utility.yul\":988:1127   */\n      swap1\n      pop\n        /* \"#utility.yul\":715:1134   */\n      swap2\n      swap1\n      pop\n      jump\t// out\n\n    auxdata: 0xa264697066735822122008506c8bb6108084fcb729b8d2651f18e3f3e42310953195ad01bd77dece390064736f6c63430008160033\n}\n",
				"bytecode": {
					"linkReferences": {},
					"object": "608060405234801561000f575f80fd5b5061010f8061001d5f395ff3fe6080604052348015600e575f80fd5b50600436106026575f3560e01c80638e5159b014602a575b5f80fd5b60306032565b005b7f695a9e8aa4a54f62feafe2a96f107e287ede90c04f975155faf83eacbb68d27c604051605d9060bd565b60405180910390a1565b5f82825260208201905092915050565b7f66726f6d204100000000000000000000000000000000000000000000000000005f82015250565b5f60a96006836067565b915060b2826077565b602082019050919050565b5f6020820190508181035f83015260d281609f565b905091905056fea264697066735822122008506c8bb6108084fcb729b8d2651f18e3f3e42310953195ad01bd77dece390064736f6c63430008160033",
					"opcodes": "PUSH1 0x80 PUSH1 0x40 MSTORE CALLVALUE DUP1 ISZERO PUSH2 0xF JUMPI PUSH0 DUP1 REVERT JUMPDEST POP PUSH2 0x10F DUP1 PUSH2 0x1D PUSH0 CODECOPY PUSH0 RETURN INVALID PUSH1 0x80 PUSH1 0x40 MSTORE CALLVALUE DUP1 ISZERO PUSH1 0xE JUMPI PUSH0 DUP1 REVERT JUMPDEST POP PUSH1 0x4 CALLDATASIZE LT PUSH1 0x26 JUMPI PUSH0 CALLDATALOAD PUSH1 0xE0 SHR DUP1 PUSH4 0x8E5159B0 EQ PUSH1 0x2A JUMPI JUMPDEST PUSH0 DUP1 REVERT JUMPDEST PUSH1 0x30 PUSH1 0x32 JUMP JUMPDEST STOP JUMPDEST PUSH32 0x695A9E8AA4A54F62FEAFE2A96F107E287EDE90C04F975155FAF83EACBB68D27C PUSH1 0x40 MLOAD PUSH1 0x5D SWAP1 PUSH1 0xBD JUMP JUMPDEST PUSH1 0x40 MLOAD DUP1 SWAP2 SUB SWAP1 LOG1 JUMP JUMPDEST PUSH0 DUP3 DUP3 MSTORE PUSH1 0x20 DUP3 ADD SWAP1 POP SWAP3 SWAP2 POP POP JUMP JUMPDEST PUSH32 0x66726F6D20410000000000000000000000000000000000000000000000000000 PUSH0 DUP3 ADD MSTORE POP JUMP JUMPDEST PUSH0 PUSH1 0xA9 PUSH1 0x6 DUP4 PUSH1 0x67 JUMP JUMPDEST SWAP2 POP PUSH1 0xB2 DUP3 PUSH1 0x77 JUMP JUMPDEST PUSH1 0x20 DUP3 ADD SWAP1 POP SWAP2 SWAP1 POP JUMP JUMPDEST PUSH0 PUSH1 0x20 DUP3 ADD SWAP1 POP DUP2 DUP2 SUB PUSH0 DUP4 ADD MSTORE PUSH1 0xD2 DUP2 PUSH1 0x9F JUMP JUMPDEST SWAP1 POP SWAP2 SWAP1 POP JUMP INVALID LOG2 PUSH5 0x6970667358 0x22 SLT KECCAK256 ADDMOD POP PUSH13 0x8BB6108084FCB729B8D2651F18 0xE3 RETURN 0xE4 0x23 LT SWAP6 BALANCE SWAP6 0xAD ADD 0xBD PUSH24 0xDECE390064736F6C63430008160033000000000000000000 "
				},
				"gasEstimates": {
					"creation": {
						"codeDepositCost": "54200",
						"executionCost": "103",
						"totalCost": "54303"
					},
					"external": {
						"funA()": "1918"
					}
				},
				"methodIdentifiers": {
					"funA()": "8e5159b0"
				}
			},
			"storageLayout": {
				"storage": [],
				"types": null
			},
			"userdoc": {
				"kind": "user",
				"methods": {},
				"version": 1
			}
		}
	}
}