{
	"contracts/ERC20_Token_Sale.sol/Smart_Wallet.sol": {
		"SmartWallet": {
			"abi": [
				{
					"inputs": [],
					"stateMutability": "nonpayable",
					"type": "constructor"
				},
				{
					"inputs": [
						{
							"internalType": "address",
							"name": "",
							"type": "address"
						}
					],
					"name": "allowance",
					"outputs": [
						{
							"internalType": "uint256",
							"name": "",
							"type": "uint256"
						}
					],
					"stateMutability": "view",
					"type": "function"
				},
				{
					"inputs": [],
					"name": "confirmationFromGuardiansForReset",
					"outputs": [
						{
							"internalType": "uint256",
							"name": "",
							"type": "uint256"
						}
					],
					"stateMutability": "view",
					"type": "function"
				},
				{
					"inputs": [
						{
							"internalType": "address",
							"name": "",
							"type": "address"
						}
					],
					"name": "guardians",
					"outputs": [
						{
							"internalType": "bool",
							"name": "",
							"type": "bool"
						}
					],
					"stateMutability": "view",
					"type": "function"
				},
				{
					"inputs": [
						{
							"internalType": "address",
							"name": "",
							"type": "address"
						}
					],
					"name": "isAllowedToSend",
					"outputs": [
						{
							"internalType": "bool",
							"name": "",
							"type": "bool"
						}
					],
					"stateMutability": "view",
					"type": "function"
				},
				{
					"inputs": [],
					"name": "owner",
					"outputs": [
						{
							"internalType": "address payable",
							"name": "",
							"type": "address"
						}
					],
					"stateMutability": "view",
					"type": "function"
				},
				{
					"inputs": [
						{
							"internalType": "address payable",
							"name": "_newOwner",
							"type": "address"
						}
					],
					"name": "proposeNewOwner",
					"outputs": [],
					"stateMutability": "nonpayable",
					"type": "function"
				},
				{
					"inputs": [
						{
							"internalType": "address",
							"name": "_for",
							"type": "address"
						},
						{
							"internalType": "uint256",
							"name": "_amount",
							"type": "uint256"
						}
					],
					"name": "setAllowance",
					"outputs": [],
					"stateMutability": "nonpayable",
					"type": "function"
				},
				{
					"inputs": [
						{
							"internalType": "address",
							"name": "_guardian",
							"type": "address"
						},
						{
							"internalType": "bool",
							"name": "_isGuardian",
							"type": "bool"
						}
					],
					"name": "setGuardians",
					"outputs": [],
					"stateMutability": "nonpayable",
					"type": "function"
				},
				{
					"inputs": [
						{
							"internalType": "address payable",
							"name": "_to",
							"type": "address"
						},
						{
							"internalType": "uint256",
							"name": "_amount",
							"type": "uint256"
						},
						{
							"internalType": "bytes",
							"name": "_payload",
							"type": "bytes"
						}
					],
					"name": "transfer",
					"outputs": [
						{
							"internalType": "bytes",
							"name": "",
							"type": "bytes"
						}
					],
					"stateMutability": "nonpayable",
					"type": "function"
				},
				{
					"stateMutability": "payable",
					"type": "receive"
				}
			],
			"devdoc": {
				"kind": "dev",
				"methods": {},
				"version": 1
			},
			"evm": {
				"assembly": "    /* \"contracts/ERC20_Token_Sale.sol/Smart_Wallet.sol\":401:2824  contract SmartWallet {... */\n  mstore(0x40, 0x80)\n    /* \"contracts/ERC20_Token_Sale.sol/Smart_Wallet.sol\":814:871  constructor(){... */\n  callvalue\n  dup1\n  iszero\n  tag_1\n  jumpi\n  0x00\n  dup1\n  revert\ntag_1:\n  pop\n    /* \"contracts/ERC20_Token_Sale.sol/Smart_Wallet.sol\":853:863  msg.sender */\n  caller\n    /* \"contracts/ERC20_Token_Sale.sol/Smart_Wallet.sol\":837:842  owner */\n  0x00\n  dup1\n    /* \"contracts/ERC20_Token_Sale.sol/Smart_Wallet.sol\":837:864  owner = payable(msg.sender) */\n  0x0100\n  exp\n  dup2\n  sload\n  dup2\n  0xffffffffffffffffffffffffffffffffffffffff\n  mul\n  not\n  and\n  swap1\n  dup4\n  0xffffffffffffffffffffffffffffffffffffffff\n  and\n  mul\n  or\n  swap1\n  sstore\n  pop\n    /* \"contracts/ERC20_Token_Sale.sol/Smart_Wallet.sol\":401:2824  contract SmartWallet {... */\n  dataSize(sub_0)\n  dup1\n  dataOffset(sub_0)\n  0x00\n  codecopy\n  0x00\n  return\nstop\n\nsub_0: assembly {\n        /* \"contracts/ERC20_Token_Sale.sol/Smart_Wallet.sol\":401:2824  contract SmartWallet {... */\n      mstore(0x40, 0x80)\n      jumpi(tag_1, lt(calldatasize, 0x04))\n      shr(0xe0, calldataload(0x00))\n      dup1\n      0x3e5beab9\n      gt\n      tag_12\n      jumpi\n      dup1\n      0x3e5beab9\n      eq\n      tag_7\n      jumpi\n      dup1\n      0x58e404b1\n      eq\n      tag_8\n      jumpi\n      dup1\n      0x8da5cb5b\n      eq\n      tag_9\n      jumpi\n      dup1\n      0xb1f8100d\n      eq\n      tag_10\n      jumpi\n      dup1\n      0xbe45fd62\n      eq\n      tag_11\n      jumpi\n      jump(tag_2)\n    tag_12:\n      dup1\n      0x0633b14a\n      eq\n      tag_3\n      jumpi\n      dup1\n      0x0bc605ad\n      eq\n      tag_4\n      jumpi\n      dup1\n      0x310ec4a7\n      eq\n      tag_5\n      jumpi\n      dup1\n      0x35be453b\n      eq\n      tag_6\n      jumpi\n      jump(tag_2)\n    tag_1:\n      jumpi(tag_2, calldatasize)\n      stop\n    tag_2:\n      0x00\n      dup1\n      revert\n        /* \"contracts/ERC20_Token_Sale.sol/Smart_Wallet.sol\":564:605  mapping(address => bool) public guardians */\n    tag_3:\n      callvalue\n      dup1\n      iszero\n      tag_15\n      jumpi\n      0x00\n      dup1\n      revert\n    tag_15:\n      pop\n      tag_16\n      0x04\n      dup1\n      calldatasize\n      sub\n      dup2\n      add\n      swap1\n      tag_17\n      swap2\n      swap1\n      tag_18\n      jump\t// in\n    tag_17:\n      tag_19\n      jump\t// in\n    tag_16:\n      mload(0x40)\n      tag_20\n      swap2\n      swap1\n      tag_21\n      jump\t// in\n    tag_20:\n      mload(0x40)\n      dup1\n      swap2\n      sub\n      swap1\n      return\n        /* \"contracts/ERC20_Token_Sale.sol/Smart_Wallet.sol\":511:558  mapping(address => bool) public isAllowedToSend */\n    tag_4:\n      callvalue\n      dup1\n      iszero\n      tag_22\n      jumpi\n      0x00\n      dup1\n      revert\n    tag_22:\n      pop\n      tag_23\n      0x04\n      dup1\n      calldatasize\n      sub\n      dup2\n      add\n      swap1\n      tag_24\n      swap2\n      swap1\n      tag_18\n      jump\t// in\n    tag_24:\n      tag_25\n      jump\t// in\n    tag_23:\n      mload(0x40)\n      tag_26\n      swap2\n      swap1\n      tag_21\n      jump\t// in\n    tag_26:\n      mload(0x40)\n      dup1\n      swap2\n      sub\n      swap1\n      return\n        /* \"contracts/ERC20_Token_Sale.sol/Smart_Wallet.sol\":1654:1993  function setAllowance(address _for, uint _amount) public {... */\n    tag_5:\n      callvalue\n      dup1\n      iszero\n      tag_27\n      jumpi\n      0x00\n      dup1\n      revert\n    tag_27:\n      pop\n      tag_28\n      0x04\n      dup1\n      calldatasize\n      sub\n      dup2\n      add\n      swap1\n      tag_29\n      swap2\n      swap1\n      tag_30\n      jump\t// in\n    tag_29:\n      tag_31\n      jump\t// in\n    tag_28:\n      stop\n        /* \"contracts/ERC20_Token_Sale.sol/Smart_Wallet.sol\":877:1068  function setGuardians(address _guardian, bool _isGuardian) public {... */\n    tag_6:\n      callvalue\n      dup1\n      iszero\n      tag_32\n      jumpi\n      0x00\n      dup1\n      revert\n    tag_32:\n      pop\n      tag_33\n      0x04\n      dup1\n      calldatasize\n      sub\n      dup2\n      add\n      swap1\n      tag_34\n      swap2\n      swap1\n      tag_35\n      jump\t// in\n    tag_34:\n      tag_36\n      jump\t// in\n    tag_33:\n      stop\n        /* \"contracts/ERC20_Token_Sale.sol/Smart_Wallet.sol\":464:505  mapping(address => uint) public allowance */\n    tag_7:\n      callvalue\n      dup1\n      iszero\n      tag_37\n      jumpi\n      0x00\n      dup1\n      revert\n    tag_37:\n      pop\n      tag_38\n      0x04\n      dup1\n      calldatasize\n      sub\n      dup2\n      add\n      swap1\n      tag_39\n      swap2\n      swap1\n      tag_18\n      jump\t// in\n    tag_39:\n      tag_40\n      jump\t// in\n    tag_38:\n      mload(0x40)\n      tag_41\n      swap2\n      swap1\n      tag_42\n      jump\t// in\n    tag_41:\n      mload(0x40)\n      dup1\n      swap2\n      sub\n      swap1\n      return\n        /* \"contracts/ERC20_Token_Sale.sol/Smart_Wallet.sol\":672:730  uint public constant confirmationFromGuardiansForReset = 3 */\n    tag_8:\n      callvalue\n      dup1\n      iszero\n      tag_43\n      jumpi\n      0x00\n      dup1\n      revert\n    tag_43:\n      pop\n      tag_44\n      tag_45\n      jump\t// in\n    tag_44:\n      mload(0x40)\n      tag_46\n      swap2\n      swap1\n      tag_42\n      jump\t// in\n    tag_46:\n      mload(0x40)\n      dup1\n      swap2\n      sub\n      swap1\n      return\n        /* \"contracts/ERC20_Token_Sale.sol/Smart_Wallet.sol\":429:457  address payable public owner */\n    tag_9:\n      callvalue\n      dup1\n      iszero\n      tag_47\n      jumpi\n      0x00\n      dup1\n      revert\n    tag_47:\n      pop\n      tag_48\n      tag_49\n      jump\t// in\n    tag_48:\n      mload(0x40)\n      tag_50\n      swap2\n      swap1\n      tag_51\n      jump\t// in\n    tag_50:\n      mload(0x40)\n      dup1\n      swap2\n      sub\n      swap1\n      return\n        /* \"contracts/ERC20_Token_Sale.sol/Smart_Wallet.sol\":1074:1648  function proposeNewOwner(address payable _newOwner) public {... */\n    tag_10:\n      callvalue\n      dup1\n      iszero\n      tag_52\n      jumpi\n      0x00\n      dup1\n      revert\n    tag_52:\n      pop\n      tag_53\n      0x04\n      dup1\n      calldatasize\n      sub\n      dup2\n      add\n      swap1\n      tag_54\n      swap2\n      swap1\n      tag_55\n      jump\t// in\n    tag_54:\n      tag_56\n      jump\t// in\n    tag_53:\n      stop\n        /* \"contracts/ERC20_Token_Sale.sol/Smart_Wallet.sol\":1999:2784  function transfer(address payable _to, uint _amount, bytes memory _payload) public returns (bytes memory){... */\n    tag_11:\n      callvalue\n      dup1\n      iszero\n      tag_57\n      jumpi\n      0x00\n      dup1\n      revert\n    tag_57:\n      pop\n      tag_58\n      0x04\n      dup1\n      calldatasize\n      sub\n      dup2\n      add\n      swap1\n      tag_59\n      swap2\n      swap1\n      tag_60\n      jump\t// in\n    tag_59:\n      tag_61\n      jump\t// in\n    tag_58:\n      mload(0x40)\n      tag_62\n      swap2\n      swap1\n      tag_63\n      jump\t// in\n    tag_62:\n      mload(0x40)\n      dup1\n      swap2\n      sub\n      swap1\n      return\n        /* \"contracts/ERC20_Token_Sale.sol/Smart_Wallet.sol\":564:605  mapping(address => bool) public guardians */\n    tag_19:\n      mstore(0x20, 0x03)\n      dup1\n      0x00\n      mstore\n      keccak256(0x00, 0x40)\n      0x00\n      swap2\n      pop\n      sload\n      swap1\n      0x0100\n      exp\n      swap1\n      div\n      0xff\n      and\n      dup2\n      jump\t// out\n        /* \"contracts/ERC20_Token_Sale.sol/Smart_Wallet.sol\":511:558  mapping(address => bool) public isAllowedToSend */\n    tag_25:\n      mstore(0x20, 0x02)\n      dup1\n      0x00\n      mstore\n      keccak256(0x00, 0x40)\n      0x00\n      swap2\n      pop\n      sload\n      swap1\n      0x0100\n      exp\n      swap1\n      div\n      0xff\n      and\n      dup2\n      jump\t// out\n        /* \"contracts/ERC20_Token_Sale.sol/Smart_Wallet.sol\":1654:1993  function setAllowance(address _for, uint _amount) public {... */\n    tag_31:\n        /* \"contracts/ERC20_Token_Sale.sol/Smart_Wallet.sol\":1752:1757  owner */\n      0x00\n      dup1\n      sload\n      swap1\n      0x0100\n      exp\n      swap1\n      div\n      0xffffffffffffffffffffffffffffffffffffffff\n      and\n        /* \"contracts/ERC20_Token_Sale.sol/Smart_Wallet.sol\":1738:1757  msg.sender == owner */\n      0xffffffffffffffffffffffffffffffffffffffff\n      and\n        /* \"contracts/ERC20_Token_Sale.sol/Smart_Wallet.sol\":1738:1748  msg.sender */\n      caller\n        /* \"contracts/ERC20_Token_Sale.sol/Smart_Wallet.sol\":1738:1757  msg.sender == owner */\n      0xffffffffffffffffffffffffffffffffffffffff\n      and\n      eq\n        /* \"contracts/ERC20_Token_Sale.sol/Smart_Wallet.sol\":1730:1794  require(msg.sender == owner, \"You are not the Owner, Aborting!\") */\n      tag_65\n      jumpi\n      mload(0x40)\n      0x08c379a000000000000000000000000000000000000000000000000000000000\n      dup2\n      mstore\n      0x04\n      add\n      tag_66\n      swap1\n      tag_67\n      jump\t// in\n    tag_66:\n      mload(0x40)\n      dup1\n      swap2\n      sub\n      swap1\n      revert\n    tag_65:\n        /* \"contracts/ERC20_Token_Sale.sol/Smart_Wallet.sol\":1831:1838  _amount */\n      dup1\n        /* \"contracts/ERC20_Token_Sale.sol/Smart_Wallet.sol\":1813:1822  allowance */\n      0x01\n        /* \"contracts/ERC20_Token_Sale.sol/Smart_Wallet.sol\":1813:1828  allowance[_for] */\n      0x00\n        /* \"contracts/ERC20_Token_Sale.sol/Smart_Wallet.sol\":1823:1827  _for */\n      dup5\n        /* \"contracts/ERC20_Token_Sale.sol/Smart_Wallet.sol\":1813:1828  allowance[_for] */\n      0xffffffffffffffffffffffffffffffffffffffff\n      and\n      0xffffffffffffffffffffffffffffffffffffffff\n      and\n      dup2\n      mstore\n      0x20\n      add\n      swap1\n      dup2\n      mstore\n      0x20\n      add\n      0x00\n      keccak256\n        /* \"contracts/ERC20_Token_Sale.sol/Smart_Wallet.sol\":1813:1838  allowance[_for] = _amount */\n      dup2\n      swap1\n      sstore\n      pop\n        /* \"contracts/ERC20_Token_Sale.sol/Smart_Wallet.sol\":1863:1864  0 */\n      0x00\n        /* \"contracts/ERC20_Token_Sale.sol/Smart_Wallet.sol\":1853:1860  _amount */\n      dup2\n        /* \"contracts/ERC20_Token_Sale.sol/Smart_Wallet.sol\":1853:1864  _amount > 0 */\n      gt\n        /* \"contracts/ERC20_Token_Sale.sol/Smart_Wallet.sol\":1849:1987  if (_amount > 0) {... */\n      iszero\n      tag_68\n      jumpi\n        /* \"contracts/ERC20_Token_Sale.sol/Smart_Wallet.sol\":1904:1908  true */\n      0x01\n        /* \"contracts/ERC20_Token_Sale.sol/Smart_Wallet.sol\":1880:1895  isAllowedToSend */\n      0x02\n        /* \"contracts/ERC20_Token_Sale.sol/Smart_Wallet.sol\":1880:1901  isAllowedToSend[_for] */\n      0x00\n        /* \"contracts/ERC20_Token_Sale.sol/Smart_Wallet.sol\":1896:1900  _for */\n      dup5\n        /* \"contracts/ERC20_Token_Sale.sol/Smart_Wallet.sol\":1880:1901  isAllowedToSend[_for] */\n      0xffffffffffffffffffffffffffffffffffffffff\n      and\n      0xffffffffffffffffffffffffffffffffffffffff\n      and\n      dup2\n      mstore\n      0x20\n      add\n      swap1\n      dup2\n      mstore\n      0x20\n      add\n      0x00\n      keccak256\n      0x00\n        /* \"contracts/ERC20_Token_Sale.sol/Smart_Wallet.sol\":1880:1908  isAllowedToSend[_for] = true */\n      0x0100\n      exp\n      dup2\n      sload\n      dup2\n      0xff\n      mul\n      not\n      and\n      swap1\n      dup4\n      iszero\n      iszero\n      mul\n      or\n      swap1\n      sstore\n      pop\n        /* \"contracts/ERC20_Token_Sale.sol/Smart_Wallet.sol\":1849:1987  if (_amount > 0) {... */\n      jump(tag_69)\n    tag_68:\n        /* \"contracts/ERC20_Token_Sale.sol/Smart_Wallet.sol\":1971:1976  false */\n      0x00\n        /* \"contracts/ERC20_Token_Sale.sol/Smart_Wallet.sol\":1947:1962  isAllowedToSend */\n      0x02\n        /* \"contracts/ERC20_Token_Sale.sol/Smart_Wallet.sol\":1947:1968  isAllowedToSend[_for] */\n      0x00\n        /* \"contracts/ERC20_Token_Sale.sol/Smart_Wallet.sol\":1963:1967  _for */\n      dup5\n        /* \"contracts/ERC20_Token_Sale.sol/Smart_Wallet.sol\":1947:1968  isAllowedToSend[_for] */\n      0xffffffffffffffffffffffffffffffffffffffff\n      and\n      0xffffffffffffffffffffffffffffffffffffffff\n      and\n      dup2\n      mstore\n      0x20\n      add\n      swap1\n      dup2\n      mstore\n      0x20\n      add\n      0x00\n      keccak256\n      0x00\n        /* \"contracts/ERC20_Token_Sale.sol/Smart_Wallet.sol\":1947:1976  isAllowedToSend[_for] = false */\n      0x0100\n      exp\n      dup2\n      sload\n      dup2\n      0xff\n      mul\n      not\n      and\n      swap1\n      dup4\n      iszero\n      iszero\n      mul\n      or\n      swap1\n      sstore\n      pop\n        /* \"contracts/ERC20_Token_Sale.sol/Smart_Wallet.sol\":1849:1987  if (_amount > 0) {... */\n    tag_69:\n        /* \"contracts/ERC20_Token_Sale.sol/Smart_Wallet.sol\":1654:1993  function setAllowance(address _for, uint _amount) public {... */\n      pop\n      pop\n      jump\t// out\n        /* \"contracts/ERC20_Token_Sale.sol/Smart_Wallet.sol\":877:1068  function setGuardians(address _guardian, bool _isGuardian) public {... */\n    tag_36:\n        /* \"contracts/ERC20_Token_Sale.sol/Smart_Wallet.sol\":975:980  owner */\n      0x00\n      dup1\n      sload\n      swap1\n      0x0100\n      exp\n      swap1\n      div\n      0xffffffffffffffffffffffffffffffffffffffff\n      and\n        /* \"contracts/ERC20_Token_Sale.sol/Smart_Wallet.sol\":961:980  msg.sender == owner */\n      0xffffffffffffffffffffffffffffffffffffffff\n      and\n        /* \"contracts/ERC20_Token_Sale.sol/Smart_Wallet.sol\":961:971  msg.sender */\n      caller\n        /* \"contracts/ERC20_Token_Sale.sol/Smart_Wallet.sol\":961:980  msg.sender == owner */\n      0xffffffffffffffffffffffffffffffffffffffff\n      and\n      eq\n        /* \"contracts/ERC20_Token_Sale.sol/Smart_Wallet.sol\":953:1017  require(msg.sender == owner, \"You are not the Owner, Aborting!\") */\n      tag_71\n      jumpi\n      mload(0x40)\n      0x08c379a000000000000000000000000000000000000000000000000000000000\n      dup2\n      mstore\n      0x04\n      add\n      tag_72\n      swap1\n      tag_67\n      jump\t// in\n    tag_72:\n      mload(0x40)\n      dup1\n      swap2\n      sub\n      swap1\n      revert\n    tag_71:\n        /* \"contracts/ERC20_Token_Sale.sol/Smart_Wallet.sol\":1050:1061  _isGuardian */\n      dup1\n        /* \"contracts/ERC20_Token_Sale.sol/Smart_Wallet.sol\":1027:1036  guardians */\n      0x03\n        /* \"contracts/ERC20_Token_Sale.sol/Smart_Wallet.sol\":1027:1047  guardians[_guardian] */\n      0x00\n        /* \"contracts/ERC20_Token_Sale.sol/Smart_Wallet.sol\":1037:1046  _guardian */\n      dup5\n        /* \"contracts/ERC20_Token_Sale.sol/Smart_Wallet.sol\":1027:1047  guardians[_guardian] */\n      0xffffffffffffffffffffffffffffffffffffffff\n      and\n      0xffffffffffffffffffffffffffffffffffffffff\n      and\n      dup2\n      mstore\n      0x20\n      add\n      swap1\n      dup2\n      mstore\n      0x20\n      add\n      0x00\n      keccak256\n      0x00\n        /* \"contracts/ERC20_Token_Sale.sol/Smart_Wallet.sol\":1027:1061  guardians[_guardian] = _isGuardian */\n      0x0100\n      exp\n      dup2\n      sload\n      dup2\n      0xff\n      mul\n      not\n      and\n      swap1\n      dup4\n      iszero\n      iszero\n      mul\n      or\n      swap1\n      sstore\n      pop\n        /* \"contracts/ERC20_Token_Sale.sol/Smart_Wallet.sol\":877:1068  function setGuardians(address _guardian, bool _isGuardian) public {... */\n      pop\n      pop\n      jump\t// out\n        /* \"contracts/ERC20_Token_Sale.sol/Smart_Wallet.sol\":464:505  mapping(address => uint) public allowance */\n    tag_40:\n      mstore(0x20, 0x01)\n      dup1\n      0x00\n      mstore\n      keccak256(0x00, 0x40)\n      0x00\n      swap2\n      pop\n      swap1\n      pop\n      sload\n      dup2\n      jump\t// out\n        /* \"contracts/ERC20_Token_Sale.sol/Smart_Wallet.sol\":672:730  uint public constant confirmationFromGuardiansForReset = 3 */\n    tag_45:\n        /* \"contracts/ERC20_Token_Sale.sol/Smart_Wallet.sol\":729:730  3 */\n      0x03\n        /* \"contracts/ERC20_Token_Sale.sol/Smart_Wallet.sol\":672:730  uint public constant confirmationFromGuardiansForReset = 3 */\n      dup2\n      jump\t// out\n        /* \"contracts/ERC20_Token_Sale.sol/Smart_Wallet.sol\":429:457  address payable public owner */\n    tag_49:\n      0x00\n      dup1\n      sload\n      swap1\n      0x0100\n      exp\n      swap1\n      div\n      0xffffffffffffffffffffffffffffffffffffffff\n      and\n      dup2\n      jump\t// out\n        /* \"contracts/ERC20_Token_Sale.sol/Smart_Wallet.sol\":1074:1648  function proposeNewOwner(address payable _newOwner) public {... */\n    tag_56:\n        /* \"contracts/ERC20_Token_Sale.sol/Smart_Wallet.sol\":1151:1160  guardians */\n      0x03\n        /* \"contracts/ERC20_Token_Sale.sol/Smart_Wallet.sol\":1151:1172  guardians[msg.sender] */\n      0x00\n        /* \"contracts/ERC20_Token_Sale.sol/Smart_Wallet.sol\":1161:1171  msg.sender */\n      caller\n        /* \"contracts/ERC20_Token_Sale.sol/Smart_Wallet.sol\":1151:1172  guardians[msg.sender] */\n      0xffffffffffffffffffffffffffffffffffffffff\n      and\n      0xffffffffffffffffffffffffffffffffffffffff\n      and\n      dup2\n      mstore\n      0x20\n      add\n      swap1\n      dup2\n      mstore\n      0x20\n      add\n      0x00\n      keccak256\n      0x00\n      swap1\n      sload\n      swap1\n      0x0100\n      exp\n      swap1\n      div\n      0xff\n      and\n        /* \"contracts/ERC20_Token_Sale.sol/Smart_Wallet.sol\":1143:1225  require(guardians[msg.sender], \"You are not a Guardian Of This Wallet, Aborting!\") */\n      tag_74\n      jumpi\n      mload(0x40)\n      0x08c379a000000000000000000000000000000000000000000000000000000000\n      dup2\n      mstore\n      0x04\n      add\n      tag_75\n      swap1\n      tag_76\n      jump\t// in\n    tag_75:\n      mload(0x40)\n      dup1\n      swap2\n      sub\n      swap1\n      revert\n    tag_74:\n        /* \"contracts/ERC20_Token_Sale.sol/Smart_Wallet.sol\":1296:1301  false */\n      0x00\n        /* \"contracts/ERC20_Token_Sale.sol/Smart_Wallet.sol\":1243:1301  nextOwnerGuardianVotedBool[_newOwner][msg.sender] == false */\n      iszero\n      iszero\n        /* \"contracts/ERC20_Token_Sale.sol/Smart_Wallet.sol\":1243:1269  nextOwnerGuardianVotedBool */\n      0x06\n        /* \"contracts/ERC20_Token_Sale.sol/Smart_Wallet.sol\":1243:1280  nextOwnerGuardianVotedBool[_newOwner] */\n      0x00\n        /* \"contracts/ERC20_Token_Sale.sol/Smart_Wallet.sol\":1270:1279  _newOwner */\n      dup4\n        /* \"contracts/ERC20_Token_Sale.sol/Smart_Wallet.sol\":1243:1280  nextOwnerGuardianVotedBool[_newOwner] */\n      0xffffffffffffffffffffffffffffffffffffffff\n      and\n      0xffffffffffffffffffffffffffffffffffffffff\n      and\n      dup2\n      mstore\n      0x20\n      add\n      swap1\n      dup2\n      mstore\n      0x20\n      add\n      0x00\n      keccak256\n        /* \"contracts/ERC20_Token_Sale.sol/Smart_Wallet.sol\":1243:1292  nextOwnerGuardianVotedBool[_newOwner][msg.sender] */\n      0x00\n        /* \"contracts/ERC20_Token_Sale.sol/Smart_Wallet.sol\":1281:1291  msg.sender */\n      caller\n        /* \"contracts/ERC20_Token_Sale.sol/Smart_Wallet.sol\":1243:1292  nextOwnerGuardianVotedBool[_newOwner][msg.sender] */\n      0xffffffffffffffffffffffffffffffffffffffff\n      and\n      0xffffffffffffffffffffffffffffffffffffffff\n      and\n      dup2\n      mstore\n      0x20\n      add\n      swap1\n      dup2\n      mstore\n      0x20\n      add\n      0x00\n      keccak256\n      0x00\n      swap1\n      sload\n      swap1\n      0x0100\n      exp\n      swap1\n      div\n      0xff\n      and\n        /* \"contracts/ERC20_Token_Sale.sol/Smart_Wallet.sol\":1243:1301  nextOwnerGuardianVotedBool[_newOwner][msg.sender] == false */\n      iszero\n      iszero\n      eq\n        /* \"contracts/ERC20_Token_Sale.sol/Smart_Wallet.sol\":1235:1334  require(nextOwnerGuardianVotedBool[_newOwner][msg.sender] == false, \"You already voted, Aborting!\") */\n      tag_77\n      jumpi\n      mload(0x40)\n      0x08c379a000000000000000000000000000000000000000000000000000000000\n      dup2\n      mstore\n      0x04\n      add\n      tag_78\n      swap1\n      tag_79\n      jump\t// in\n    tag_78:\n      mload(0x40)\n      dup1\n      swap2\n      sub\n      swap1\n      revert\n    tag_77:\n        /* \"contracts/ERC20_Token_Sale.sol/Smart_Wallet.sol\":1360:1369  nextOwner */\n      0x04\n      0x00\n      swap1\n      sload\n      swap1\n      0x0100\n      exp\n      swap1\n      div\n      0xffffffffffffffffffffffffffffffffffffffff\n      and\n        /* \"contracts/ERC20_Token_Sale.sol/Smart_Wallet.sol\":1347:1369  _newOwner != nextOwner */\n      0xffffffffffffffffffffffffffffffffffffffff\n      and\n        /* \"contracts/ERC20_Token_Sale.sol/Smart_Wallet.sol\":1347:1356  _newOwner */\n      dup2\n        /* \"contracts/ERC20_Token_Sale.sol/Smart_Wallet.sol\":1347:1369  _newOwner != nextOwner */\n      0xffffffffffffffffffffffffffffffffffffffff\n      and\n      eq\n        /* \"contracts/ERC20_Token_Sale.sol/Smart_Wallet.sol\":1344:1453  if(_newOwner != nextOwner){... */\n      tag_80\n      jumpi\n        /* \"contracts/ERC20_Token_Sale.sol/Smart_Wallet.sol\":1396:1405  _newOwner */\n      dup1\n        /* \"contracts/ERC20_Token_Sale.sol/Smart_Wallet.sol\":1384:1393  nextOwner */\n      0x04\n      0x00\n        /* \"contracts/ERC20_Token_Sale.sol/Smart_Wallet.sol\":1384:1405  nextOwner = _newOwner */\n      0x0100\n      exp\n      dup2\n      sload\n      dup2\n      0xffffffffffffffffffffffffffffffffffffffff\n      mul\n      not\n      and\n      swap1\n      dup4\n      0xffffffffffffffffffffffffffffffffffffffff\n      and\n      mul\n      or\n      swap1\n      sstore\n      pop\n        /* \"contracts/ERC20_Token_Sale.sol/Smart_Wallet.sol\":1441:1442  0 */\n      0x00\n        /* \"contracts/ERC20_Token_Sale.sol/Smart_Wallet.sol\":1419:1438  guardiansResetCount */\n      0x05\n        /* \"contracts/ERC20_Token_Sale.sol/Smart_Wallet.sol\":1419:1442  guardiansResetCount = 0 */\n      dup2\n      swap1\n      sstore\n      pop\n        /* \"contracts/ERC20_Token_Sale.sol/Smart_Wallet.sol\":1344:1453  if(_newOwner != nextOwner){... */\n    tag_80:\n        /* \"contracts/ERC20_Token_Sale.sol/Smart_Wallet.sol\":1463:1482  guardiansResetCount */\n      0x05\n      0x00\n        /* \"contracts/ERC20_Token_Sale.sol/Smart_Wallet.sol\":1463:1484  guardiansResetCount++ */\n      dup2\n      sload\n      dup1\n      swap3\n      swap2\n      swap1\n      tag_81\n      swap1\n      tag_82\n      jump\t// in\n    tag_81:\n      swap2\n      swap1\n      pop\n      sstore\n      pop\n        /* \"contracts/ERC20_Token_Sale.sol/Smart_Wallet.sol\":729:730  3 */\n      0x03\n        /* \"contracts/ERC20_Token_Sale.sol/Smart_Wallet.sol\":1498:1517  guardiansResetCount */\n      sload(0x05)\n        /* \"contracts/ERC20_Token_Sale.sol/Smart_Wallet.sol\":1498:1554  guardiansResetCount >= confirmationFromGuardiansForReset */\n      lt\n        /* \"contracts/ERC20_Token_Sale.sol/Smart_Wallet.sol\":1495:1642  if(guardiansResetCount >= confirmationFromGuardiansForReset){... */\n      tag_83\n      jumpi\n        /* \"contracts/ERC20_Token_Sale.sol/Smart_Wallet.sol\":1577:1586  nextOwner */\n      0x04\n      0x00\n      swap1\n      sload\n      swap1\n      0x0100\n      exp\n      swap1\n      div\n      0xffffffffffffffffffffffffffffffffffffffff\n      and\n        /* \"contracts/ERC20_Token_Sale.sol/Smart_Wallet.sol\":1569:1574  owner */\n      0x00\n      dup1\n        /* \"contracts/ERC20_Token_Sale.sol/Smart_Wallet.sol\":1569:1586  owner = nextOwner */\n      0x0100\n      exp\n      dup2\n      sload\n      dup2\n      0xffffffffffffffffffffffffffffffffffffffff\n      mul\n      not\n      and\n      swap1\n      dup4\n      0xffffffffffffffffffffffffffffffffffffffff\n      and\n      mul\n      or\n      swap1\n      sstore\n      pop\n        /* \"contracts/ERC20_Token_Sale.sol/Smart_Wallet.sol\":1628:1629  0 */\n      0x00\n        /* \"contracts/ERC20_Token_Sale.sol/Smart_Wallet.sol\":1600:1609  nextOwner */\n      0x04\n      0x00\n        /* \"contracts/ERC20_Token_Sale.sol/Smart_Wallet.sol\":1600:1631  nextOwner = payable(address(0)) */\n      0x0100\n      exp\n      dup2\n      sload\n      dup2\n      0xffffffffffffffffffffffffffffffffffffffff\n      mul\n      not\n      and\n      swap1\n      dup4\n      0xffffffffffffffffffffffffffffffffffffffff\n      and\n      mul\n      or\n      swap1\n      sstore\n      pop\n        /* \"contracts/ERC20_Token_Sale.sol/Smart_Wallet.sol\":1495:1642  if(guardiansResetCount >= confirmationFromGuardiansForReset){... */\n    tag_83:\n        /* \"contracts/ERC20_Token_Sale.sol/Smart_Wallet.sol\":1074:1648  function proposeNewOwner(address payable _newOwner) public {... */\n      pop\n      jump\t// out\n        /* \"contracts/ERC20_Token_Sale.sol/Smart_Wallet.sol\":1999:2784  function transfer(address payable _to, uint _amount, bytes memory _payload) public returns (bytes memory){... */\n    tag_61:\n        /* \"contracts/ERC20_Token_Sale.sol/Smart_Wallet.sol\":2091:2103  bytes memory */\n      0x60\n        /* \"contracts/ERC20_Token_Sale.sol/Smart_Wallet.sol\":2219:2224  owner */\n      0x00\n      dup1\n      sload\n      swap1\n      0x0100\n      exp\n      swap1\n      div\n      0xffffffffffffffffffffffffffffffffffffffff\n      and\n        /* \"contracts/ERC20_Token_Sale.sol/Smart_Wallet.sol\":2205:2224  msg.sender != owner */\n      0xffffffffffffffffffffffffffffffffffffffff\n      and\n        /* \"contracts/ERC20_Token_Sale.sol/Smart_Wallet.sol\":2205:2215  msg.sender */\n      caller\n        /* \"contracts/ERC20_Token_Sale.sol/Smart_Wallet.sol\":2205:2224  msg.sender != owner */\n      0xffffffffffffffffffffffffffffffffffffffff\n      and\n      eq\n        /* \"contracts/ERC20_Token_Sale.sol/Smart_Wallet.sol\":2202:2530  if(msg.sender != owner) {... */\n      tag_85\n      jumpi\n        /* \"contracts/ERC20_Token_Sale.sol/Smart_Wallet.sol\":2273:2280  _amount */\n      dup3\n        /* \"contracts/ERC20_Token_Sale.sol/Smart_Wallet.sol\":2248:2257  allowance */\n      0x01\n        /* \"contracts/ERC20_Token_Sale.sol/Smart_Wallet.sol\":2248:2269  allowance[msg.sender] */\n      0x00\n        /* \"contracts/ERC20_Token_Sale.sol/Smart_Wallet.sol\":2258:2268  msg.sender */\n      caller\n        /* \"contracts/ERC20_Token_Sale.sol/Smart_Wallet.sol\":2248:2269  allowance[msg.sender] */\n      0xffffffffffffffffffffffffffffffffffffffff\n      and\n      0xffffffffffffffffffffffffffffffffffffffff\n      and\n      dup2\n      mstore\n      0x20\n      add\n      swap1\n      dup2\n      mstore\n      0x20\n      add\n      0x00\n      keccak256\n      sload\n        /* \"contracts/ERC20_Token_Sale.sol/Smart_Wallet.sol\":2248:2280  allowance[msg.sender] >= _amount */\n      lt\n      iszero\n        /* \"contracts/ERC20_Token_Sale.sol/Smart_Wallet.sol\":2240:2347  require(allowance[msg.sender] >= _amount, \"You are trying to send more than you are allowed to, Aborting!\") */\n      tag_86\n      jumpi\n      mload(0x40)\n      0x08c379a000000000000000000000000000000000000000000000000000000000\n      dup2\n      mstore\n      0x04\n      add\n      tag_87\n      swap1\n      tag_88\n      jump\t// in\n    tag_87:\n      mload(0x40)\n      dup1\n      swap2\n      sub\n      swap1\n      revert\n    tag_86:\n        /* \"contracts/ERC20_Token_Sale.sol/Smart_Wallet.sol\":2369:2384  isAllowedToSend */\n      0x02\n        /* \"contracts/ERC20_Token_Sale.sol/Smart_Wallet.sol\":2369:2396  isAllowedToSend[msg.sender] */\n      0x00\n        /* \"contracts/ERC20_Token_Sale.sol/Smart_Wallet.sol\":2385:2395  msg.sender */\n      caller\n        /* \"contracts/ERC20_Token_Sale.sol/Smart_Wallet.sol\":2369:2396  isAllowedToSend[msg.sender] */\n      0xffffffffffffffffffffffffffffffffffffffff\n      and\n      0xffffffffffffffffffffffffffffffffffffffff\n      and\n      dup2\n      mstore\n      0x20\n      add\n      swap1\n      dup2\n      mstore\n      0x20\n      add\n      0x00\n      keccak256\n      0x00\n      swap1\n      sload\n      swap1\n      0x0100\n      exp\n      swap1\n      div\n      0xff\n      and\n        /* \"contracts/ERC20_Token_Sale.sol/Smart_Wallet.sol\":2361:2473  require(isAllowedToSend[msg.sender], \"You are not allowed to send anything from this smart contract, Aborting!\") */\n      tag_89\n      jumpi\n      mload(0x40)\n      0x08c379a000000000000000000000000000000000000000000000000000000000\n      dup2\n      mstore\n      0x04\n      add\n      tag_90\n      swap1\n      tag_91\n      jump\t// in\n    tag_90:\n      mload(0x40)\n      dup1\n      swap2\n      sub\n      swap1\n      revert\n    tag_89:\n        /* \"contracts/ERC20_Token_Sale.sol/Smart_Wallet.sol\":2512:2519  _amount */\n      dup3\n        /* \"contracts/ERC20_Token_Sale.sol/Smart_Wallet.sol\":2487:2496  allowance */\n      0x01\n        /* \"contracts/ERC20_Token_Sale.sol/Smart_Wallet.sol\":2487:2508  allowance[msg.sender] */\n      0x00\n        /* \"contracts/ERC20_Token_Sale.sol/Smart_Wallet.sol\":2497:2507  msg.sender */\n      caller\n        /* \"contracts/ERC20_Token_Sale.sol/Smart_Wallet.sol\":2487:2508  allowance[msg.sender] */\n      0xffffffffffffffffffffffffffffffffffffffff\n      and\n      0xffffffffffffffffffffffffffffffffffffffff\n      and\n      dup2\n      mstore\n      0x20\n      add\n      swap1\n      dup2\n      mstore\n      0x20\n      add\n      0x00\n      keccak256\n      0x00\n        /* \"contracts/ERC20_Token_Sale.sol/Smart_Wallet.sol\":2487:2519  allowance[msg.sender] -= _amount */\n      dup3\n      dup3\n      sload\n      tag_92\n      swap2\n      swap1\n      tag_93\n      jump\t// in\n    tag_92:\n      swap3\n      pop\n      pop\n      dup2\n      swap1\n      sstore\n      pop\n        /* \"contracts/ERC20_Token_Sale.sol/Smart_Wallet.sol\":2202:2530  if(msg.sender != owner) {... */\n    tag_85:\n        /* \"contracts/ERC20_Token_Sale.sol/Smart_Wallet.sol\":2549:2561  bool success */\n      0x00\n        /* \"contracts/ERC20_Token_Sale.sol/Smart_Wallet.sol\":2563:2586  bytes memory returnData */\n      dup1\n        /* \"contracts/ERC20_Token_Sale.sol/Smart_Wallet.sol\":2590:2593  _to */\n      dup6\n        /* \"contracts/ERC20_Token_Sale.sol/Smart_Wallet.sol\":2590:2598  _to.call */\n      0xffffffffffffffffffffffffffffffffffffffff\n      and\n        /* \"contracts/ERC20_Token_Sale.sol/Smart_Wallet.sol\":2606:2613  _amount */\n      dup6\n        /* \"contracts/ERC20_Token_Sale.sol/Smart_Wallet.sol\":2615:2623  _payload */\n      dup6\n        /* \"contracts/ERC20_Token_Sale.sol/Smart_Wallet.sol\":2590:2624  _to.call{value: _amount}(_payload) */\n      mload(0x40)\n      tag_94\n      swap2\n      swap1\n      tag_95\n      jump\t// in\n    tag_94:\n      0x00\n      mload(0x40)\n      dup1\n      dup4\n      sub\n      dup2\n      dup6\n      dup8\n      gas\n      call\n      swap3\n      pop\n      pop\n      pop\n      returndatasize\n      dup1\n      0x00\n      dup2\n      eq\n      tag_98\n      jumpi\n      mload(0x40)\n      swap2\n      pop\n      and(add(returndatasize, 0x3f), not(0x1f))\n      dup3\n      add\n      0x40\n      mstore\n      returndatasize\n      dup3\n      mstore\n      returndatasize\n      0x00\n      0x20\n      dup5\n      add\n      returndatacopy\n      jump(tag_97)\n    tag_98:\n      0x60\n      swap2\n      pop\n    tag_97:\n      pop\n        /* \"contracts/ERC20_Token_Sale.sol/Smart_Wallet.sol\":2548:2624  (bool success, bytes memory returnData) = _to.call{value: _amount}(_payload) */\n      swap2\n      pop\n      swap2\n      pop\n        /* \"contracts/ERC20_Token_Sale.sol/Smart_Wallet.sol\":2651:2658  success */\n      dup2\n        /* \"contracts/ERC20_Token_Sale.sol/Smart_Wallet.sol\":2643:2696  require(success, \"Aborting, Call was not Successful\") */\n      tag_99\n      jumpi\n      mload(0x40)\n      0x08c379a000000000000000000000000000000000000000000000000000000000\n      dup2\n      mstore\n      0x04\n      add\n      tag_100\n      swap1\n      tag_101\n      jump\t// in\n    tag_100:\n      mload(0x40)\n      dup1\n      swap2\n      sub\n      swap1\n      revert\n    tag_99:\n        /* \"contracts/ERC20_Token_Sale.sol/Smart_Wallet.sol\":2765:2775  returnData */\n      dup1\n        /* \"contracts/ERC20_Token_Sale.sol/Smart_Wallet.sol\":2758:2775  return returnData */\n      swap3\n      pop\n      pop\n      pop\n        /* \"contracts/ERC20_Token_Sale.sol/Smart_Wallet.sol\":1999:2784  function transfer(address payable _to, uint _amount, bytes memory _payload) public returns (bytes memory){... */\n      swap4\n      swap3\n      pop\n      pop\n      pop\n      jump\t// out\n        /* \"#utility.yul\":7:82   */\n    tag_102:\n        /* \"#utility.yul\":40:46   */\n      0x00\n        /* \"#utility.yul\":73:75   */\n      0x40\n        /* \"#utility.yul\":67:76   */\n      mload\n        /* \"#utility.yul\":57:76   */\n      swap1\n      pop\n        /* \"#utility.yul\":7:82   */\n      swap1\n      jump\t// out\n        /* \"#utility.yul\":88:205   */\n    tag_103:\n        /* \"#utility.yul\":197:198   */\n      0x00\n        /* \"#utility.yul\":194:195   */\n      dup1\n        /* \"#utility.yul\":187:199   */\n      revert\n        /* \"#utility.yul\":211:328   */\n    tag_104:\n        /* \"#utility.yul\":320:321   */\n      0x00\n        /* \"#utility.yul\":317:318   */\n      dup1\n        /* \"#utility.yul\":310:322   */\n      revert\n        /* \"#utility.yul\":334:460   */\n    tag_105:\n        /* \"#utility.yul\":371:378   */\n      0x00\n        /* \"#utility.yul\":411:453   */\n      0xffffffffffffffffffffffffffffffffffffffff\n        /* \"#utility.yul\":404:409   */\n      dup3\n        /* \"#utility.yul\":400:454   */\n      and\n        /* \"#utility.yul\":389:454   */\n      swap1\n      pop\n        /* \"#utility.yul\":334:460   */\n      swap2\n      swap1\n      pop\n      jump\t// out\n        /* \"#utility.yul\":466:562   */\n    tag_106:\n        /* \"#utility.yul\":503:510   */\n      0x00\n        /* \"#utility.yul\":532:556   */\n      tag_157\n        /* \"#utility.yul\":550:555   */\n      dup3\n        /* \"#utility.yul\":532:556   */\n      tag_105\n      jump\t// in\n    tag_157:\n        /* \"#utility.yul\":521:556   */\n      swap1\n      pop\n        /* \"#utility.yul\":466:562   */\n      swap2\n      swap1\n      pop\n      jump\t// out\n        /* \"#utility.yul\":568:690   */\n    tag_107:\n        /* \"#utility.yul\":641:665   */\n      tag_159\n        /* \"#utility.yul\":659:664   */\n      dup2\n        /* \"#utility.yul\":641:665   */\n      tag_106\n      jump\t// in\n    tag_159:\n        /* \"#utility.yul\":634:639   */\n      dup2\n        /* \"#utility.yul\":631:666   */\n      eq\n        /* \"#utility.yul\":621:684   */\n      tag_160\n      jumpi\n        /* \"#utility.yul\":680:681   */\n      0x00\n        /* \"#utility.yul\":677:678   */\n      dup1\n        /* \"#utility.yul\":670:682   */\n      revert\n        /* \"#utility.yul\":621:684   */\n    tag_160:\n        /* \"#utility.yul\":568:690   */\n      pop\n      jump\t// out\n        /* \"#utility.yul\":696:835   */\n    tag_108:\n        /* \"#utility.yul\":742:747   */\n      0x00\n        /* \"#utility.yul\":780:786   */\n      dup2\n        /* \"#utility.yul\":767:787   */\n      calldataload\n        /* \"#utility.yul\":758:787   */\n      swap1\n      pop\n        /* \"#utility.yul\":796:829   */\n      tag_162\n        /* \"#utility.yul\":823:828   */\n      dup2\n        /* \"#utility.yul\":796:829   */\n      tag_107\n      jump\t// in\n    tag_162:\n        /* \"#utility.yul\":696:835   */\n      swap3\n      swap2\n      pop\n      pop\n      jump\t// out\n        /* \"#utility.yul\":841:1170   */\n    tag_18:\n        /* \"#utility.yul\":900:906   */\n      0x00\n        /* \"#utility.yul\":949:951   */\n      0x20\n        /* \"#utility.yul\":937:946   */\n      dup3\n        /* \"#utility.yul\":928:935   */\n      dup5\n        /* \"#utility.yul\":924:947   */\n      sub\n        /* \"#utility.yul\":920:952   */\n      slt\n        /* \"#utility.yul\":917:1036   */\n      iszero\n      tag_164\n      jumpi\n        /* \"#utility.yul\":955:1034   */\n      tag_165\n      tag_103\n      jump\t// in\n    tag_165:\n        /* \"#utility.yul\":917:1036   */\n    tag_164:\n        /* \"#utility.yul\":1075:1076   */\n      0x00\n        /* \"#utility.yul\":1100:1153   */\n      tag_166\n        /* \"#utility.yul\":1145:1152   */\n      dup5\n        /* \"#utility.yul\":1136:1142   */\n      dup3\n        /* \"#utility.yul\":1125:1134   */\n      dup6\n        /* \"#utility.yul\":1121:1143   */\n      add\n        /* \"#utility.yul\":1100:1153   */\n      tag_108\n      jump\t// in\n    tag_166:\n        /* \"#utility.yul\":1090:1153   */\n      swap2\n      pop\n        /* \"#utility.yul\":1046:1163   */\n      pop\n        /* \"#utility.yul\":841:1170   */\n      swap3\n      swap2\n      pop\n      pop\n      jump\t// out\n        /* \"#utility.yul\":1176:1266   */\n    tag_109:\n        /* \"#utility.yul\":1210:1217   */\n      0x00\n        /* \"#utility.yul\":1253:1258   */\n      dup2\n        /* \"#utility.yul\":1246:1259   */\n      iszero\n        /* \"#utility.yul\":1239:1260   */\n      iszero\n        /* \"#utility.yul\":1228:1260   */\n      swap1\n      pop\n        /* \"#utility.yul\":1176:1266   */\n      swap2\n      swap1\n      pop\n      jump\t// out\n        /* \"#utility.yul\":1272:1381   */\n    tag_110:\n        /* \"#utility.yul\":1353:1374   */\n      tag_169\n        /* \"#utility.yul\":1368:1373   */\n      dup2\n        /* \"#utility.yul\":1353:1374   */\n      tag_109\n      jump\t// in\n    tag_169:\n        /* \"#utility.yul\":1348:1351   */\n      dup3\n        /* \"#utility.yul\":1341:1375   */\n      mstore\n        /* \"#utility.yul\":1272:1381   */\n      pop\n      pop\n      jump\t// out\n        /* \"#utility.yul\":1387:1597   */\n    tag_21:\n        /* \"#utility.yul\":1474:1478   */\n      0x00\n        /* \"#utility.yul\":1512:1514   */\n      0x20\n        /* \"#utility.yul\":1501:1510   */\n      dup3\n        /* \"#utility.yul\":1497:1515   */\n      add\n        /* \"#utility.yul\":1489:1515   */\n      swap1\n      pop\n        /* \"#utility.yul\":1525:1590   */\n      tag_171\n        /* \"#utility.yul\":1587:1588   */\n      0x00\n        /* \"#utility.yul\":1576:1585   */\n      dup4\n        /* \"#utility.yul\":1572:1589   */\n      add\n        /* \"#utility.yul\":1563:1569   */\n      dup5\n        /* \"#utility.yul\":1525:1590   */\n      tag_110\n      jump\t// in\n    tag_171:\n        /* \"#utility.yul\":1387:1597   */\n      swap3\n      swap2\n      pop\n      pop\n      jump\t// out\n        /* \"#utility.yul\":1603:1680   */\n    tag_111:\n        /* \"#utility.yul\":1640:1647   */\n      0x00\n        /* \"#utility.yul\":1669:1674   */\n      dup2\n        /* \"#utility.yul\":1658:1674   */\n      swap1\n      pop\n        /* \"#utility.yul\":1603:1680   */\n      swap2\n      swap1\n      pop\n      jump\t// out\n        /* \"#utility.yul\":1686:1808   */\n    tag_112:\n        /* \"#utility.yul\":1759:1783   */\n      tag_174\n        /* \"#utility.yul\":1777:1782   */\n      dup2\n        /* \"#utility.yul\":1759:1783   */\n      tag_111\n      jump\t// in\n    tag_174:\n        /* \"#utility.yul\":1752:1757   */\n      dup2\n        /* \"#utility.yul\":1749:1784   */\n      eq\n        /* \"#utility.yul\":1739:1802   */\n      tag_175\n      jumpi\n        /* \"#utility.yul\":1798:1799   */\n      0x00\n        /* \"#utility.yul\":1795:1796   */\n      dup1\n        /* \"#utility.yul\":1788:1800   */\n      revert\n        /* \"#utility.yul\":1739:1802   */\n    tag_175:\n        /* \"#utility.yul\":1686:1808   */\n      pop\n      jump\t// out\n        /* \"#utility.yul\":1814:1953   */\n    tag_113:\n        /* \"#utility.yul\":1860:1865   */\n      0x00\n        /* \"#utility.yul\":1898:1904   */\n      dup2\n        /* \"#utility.yul\":1885:1905   */\n      calldataload\n        /* \"#utility.yul\":1876:1905   */\n      swap1\n      pop\n        /* \"#utility.yul\":1914:1947   */\n      tag_177\n        /* \"#utility.yul\":1941:1946   */\n      dup2\n        /* \"#utility.yul\":1914:1947   */\n      tag_112\n      jump\t// in\n    tag_177:\n        /* \"#utility.yul\":1814:1953   */\n      swap3\n      swap2\n      pop\n      pop\n      jump\t// out\n        /* \"#utility.yul\":1959:2433   */\n    tag_30:\n        /* \"#utility.yul\":2027:2033   */\n      0x00\n        /* \"#utility.yul\":2035:2041   */\n      dup1\n        /* \"#utility.yul\":2084:2086   */\n      0x40\n        /* \"#utility.yul\":2072:2081   */\n      dup4\n        /* \"#utility.yul\":2063:2070   */\n      dup6\n        /* \"#utility.yul\":2059:2082   */\n      sub\n        /* \"#utility.yul\":2055:2087   */\n      slt\n        /* \"#utility.yul\":2052:2171   */\n      iszero\n      tag_179\n      jumpi\n        /* \"#utility.yul\":2090:2169   */\n      tag_180\n      tag_103\n      jump\t// in\n    tag_180:\n        /* \"#utility.yul\":2052:2171   */\n    tag_179:\n        /* \"#utility.yul\":2210:2211   */\n      0x00\n        /* \"#utility.yul\":2235:2288   */\n      tag_181\n        /* \"#utility.yul\":2280:2287   */\n      dup6\n        /* \"#utility.yul\":2271:2277   */\n      dup3\n        /* \"#utility.yul\":2260:2269   */\n      dup7\n        /* \"#utility.yul\":2256:2278   */\n      add\n        /* \"#utility.yul\":2235:2288   */\n      tag_108\n      jump\t// in\n    tag_181:\n        /* \"#utility.yul\":2225:2288   */\n      swap3\n      pop\n        /* \"#utility.yul\":2181:2298   */\n      pop\n        /* \"#utility.yul\":2337:2339   */\n      0x20\n        /* \"#utility.yul\":2363:2416   */\n      tag_182\n        /* \"#utility.yul\":2408:2415   */\n      dup6\n        /* \"#utility.yul\":2399:2405   */\n      dup3\n        /* \"#utility.yul\":2388:2397   */\n      dup7\n        /* \"#utility.yul\":2384:2406   */\n      add\n        /* \"#utility.yul\":2363:2416   */\n      tag_113\n      jump\t// in\n    tag_182:\n        /* \"#utility.yul\":2353:2416   */\n      swap2\n      pop\n        /* \"#utility.yul\":2308:2426   */\n      pop\n        /* \"#utility.yul\":1959:2433   */\n      swap3\n      pop\n      swap3\n      swap1\n      pop\n      jump\t// out\n        /* \"#utility.yul\":2439:2555   */\n    tag_114:\n        /* \"#utility.yul\":2509:2530   */\n      tag_184\n        /* \"#utility.yul\":2524:2529   */\n      dup2\n        /* \"#utility.yul\":2509:2530   */\n      tag_109\n      jump\t// in\n    tag_184:\n        /* \"#utility.yul\":2502:2507   */\n      dup2\n        /* \"#utility.yul\":2499:2531   */\n      eq\n        /* \"#utility.yul\":2489:2549   */\n      tag_185\n      jumpi\n        /* \"#utility.yul\":2545:2546   */\n      0x00\n        /* \"#utility.yul\":2542:2543   */\n      dup1\n        /* \"#utility.yul\":2535:2547   */\n      revert\n        /* \"#utility.yul\":2489:2549   */\n    tag_185:\n        /* \"#utility.yul\":2439:2555   */\n      pop\n      jump\t// out\n        /* \"#utility.yul\":2561:2694   */\n    tag_115:\n        /* \"#utility.yul\":2604:2609   */\n      0x00\n        /* \"#utility.yul\":2642:2648   */\n      dup2\n        /* \"#utility.yul\":2629:2649   */\n      calldataload\n        /* \"#utility.yul\":2620:2649   */\n      swap1\n      pop\n        /* \"#utility.yul\":2658:2688   */\n      tag_187\n        /* \"#utility.yul\":2682:2687   */\n      dup2\n        /* \"#utility.yul\":2658:2688   */\n      tag_114\n      jump\t// in\n    tag_187:\n        /* \"#utility.yul\":2561:2694   */\n      swap3\n      swap2\n      pop\n      pop\n      jump\t// out\n        /* \"#utility.yul\":2700:3168   */\n    tag_35:\n        /* \"#utility.yul\":2765:2771   */\n      0x00\n        /* \"#utility.yul\":2773:2779   */\n      dup1\n        /* \"#utility.yul\":2822:2824   */\n      0x40\n        /* \"#utility.yul\":2810:2819   */\n      dup4\n        /* \"#utility.yul\":2801:2808   */\n      dup6\n        /* \"#utility.yul\":2797:2820   */\n      sub\n        /* \"#utility.yul\":2793:2825   */\n      slt\n        /* \"#utility.yul\":2790:2909   */\n      iszero\n      tag_189\n      jumpi\n        /* \"#utility.yul\":2828:2907   */\n      tag_190\n      tag_103\n      jump\t// in\n    tag_190:\n        /* \"#utility.yul\":2790:2909   */\n    tag_189:\n        /* \"#utility.yul\":2948:2949   */\n      0x00\n        /* \"#utility.yul\":2973:3026   */\n      tag_191\n        /* \"#utility.yul\":3018:3025   */\n      dup6\n        /* \"#utility.yul\":3009:3015   */\n      dup3\n        /* \"#utility.yul\":2998:3007   */\n      dup7\n        /* \"#utility.yul\":2994:3016   */\n      add\n        /* \"#utility.yul\":2973:3026   */\n      tag_108\n      jump\t// in\n    tag_191:\n        /* \"#utility.yul\":2963:3026   */\n      swap3\n      pop\n        /* \"#utility.yul\":2919:3036   */\n      pop\n        /* \"#utility.yul\":3075:3077   */\n      0x20\n        /* \"#utility.yul\":3101:3151   */\n      tag_192\n        /* \"#utility.yul\":3143:3150   */\n      dup6\n        /* \"#utility.yul\":3134:3140   */\n      dup3\n        /* \"#utility.yul\":3123:3132   */\n      dup7\n        /* \"#utility.yul\":3119:3141   */\n      add\n        /* \"#utility.yul\":3101:3151   */\n      tag_115\n      jump\t// in\n    tag_192:\n        /* \"#utility.yul\":3091:3151   */\n      swap2\n      pop\n        /* \"#utility.yul\":3046:3161   */\n      pop\n        /* \"#utility.yul\":2700:3168   */\n      swap3\n      pop\n      swap3\n      swap1\n      pop\n      jump\t// out\n        /* \"#utility.yul\":3174:3292   */\n    tag_116:\n        /* \"#utility.yul\":3261:3285   */\n      tag_194\n        /* \"#utility.yul\":3279:3284   */\n      dup2\n        /* \"#utility.yul\":3261:3285   */\n      tag_111\n      jump\t// in\n    tag_194:\n        /* \"#utility.yul\":3256:3259   */\n      dup3\n        /* \"#utility.yul\":3249:3286   */\n      mstore\n        /* \"#utility.yul\":3174:3292   */\n      pop\n      pop\n      jump\t// out\n        /* \"#utility.yul\":3298:3520   */\n    tag_42:\n        /* \"#utility.yul\":3391:3395   */\n      0x00\n        /* \"#utility.yul\":3429:3431   */\n      0x20\n        /* \"#utility.yul\":3418:3427   */\n      dup3\n        /* \"#utility.yul\":3414:3432   */\n      add\n        /* \"#utility.yul\":3406:3432   */\n      swap1\n      pop\n        /* \"#utility.yul\":3442:3513   */\n      tag_196\n        /* \"#utility.yul\":3510:3511   */\n      0x00\n        /* \"#utility.yul\":3499:3508   */\n      dup4\n        /* \"#utility.yul\":3495:3512   */\n      add\n        /* \"#utility.yul\":3486:3492   */\n      dup5\n        /* \"#utility.yul\":3442:3513   */\n      tag_116\n      jump\t// in\n    tag_196:\n        /* \"#utility.yul\":3298:3520   */\n      swap3\n      swap2\n      pop\n      pop\n      jump\t// out\n        /* \"#utility.yul\":3526:3630   */\n    tag_117:\n        /* \"#utility.yul\":3571:3578   */\n      0x00\n        /* \"#utility.yul\":3600:3624   */\n      tag_198\n        /* \"#utility.yul\":3618:3623   */\n      dup3\n        /* \"#utility.yul\":3600:3624   */\n      tag_105\n      jump\t// in\n    tag_198:\n        /* \"#utility.yul\":3589:3624   */\n      swap1\n      pop\n        /* \"#utility.yul\":3526:3630   */\n      swap2\n      swap1\n      pop\n      jump\t// out\n        /* \"#utility.yul\":3636:3778   */\n    tag_118:\n        /* \"#utility.yul\":3739:3771   */\n      tag_200\n        /* \"#utility.yul\":3765:3770   */\n      dup2\n        /* \"#utility.yul\":3739:3771   */\n      tag_117\n      jump\t// in\n    tag_200:\n        /* \"#utility.yul\":3734:3737   */\n      dup3\n        /* \"#utility.yul\":3727:3772   */\n      mstore\n        /* \"#utility.yul\":3636:3778   */\n      pop\n      pop\n      jump\t// out\n        /* \"#utility.yul\":3784:4038   */\n    tag_51:\n        /* \"#utility.yul\":3893:3897   */\n      0x00\n        /* \"#utility.yul\":3931:3933   */\n      0x20\n        /* \"#utility.yul\":3920:3929   */\n      dup3\n        /* \"#utility.yul\":3916:3934   */\n      add\n        /* \"#utility.yul\":3908:3934   */\n      swap1\n      pop\n        /* \"#utility.yul\":3944:4031   */\n      tag_202\n        /* \"#utility.yul\":4028:4029   */\n      0x00\n        /* \"#utility.yul\":4017:4026   */\n      dup4\n        /* \"#utility.yul\":4013:4030   */\n      add\n        /* \"#utility.yul\":4004:4010   */\n      dup5\n        /* \"#utility.yul\":3944:4031   */\n      tag_118\n      jump\t// in\n    tag_202:\n        /* \"#utility.yul\":3784:4038   */\n      swap3\n      swap2\n      pop\n      pop\n      jump\t// out\n        /* \"#utility.yul\":4044:4182   */\n    tag_119:\n        /* \"#utility.yul\":4125:4157   */\n      tag_204\n        /* \"#utility.yul\":4151:4156   */\n      dup2\n        /* \"#utility.yul\":4125:4157   */\n      tag_117\n      jump\t// in\n    tag_204:\n        /* \"#utility.yul\":4118:4123   */\n      dup2\n        /* \"#utility.yul\":4115:4158   */\n      eq\n        /* \"#utility.yul\":4105:4176   */\n      tag_205\n      jumpi\n        /* \"#utility.yul\":4172:4173   */\n      0x00\n        /* \"#utility.yul\":4169:4170   */\n      dup1\n        /* \"#utility.yul\":4162:4174   */\n      revert\n        /* \"#utility.yul\":4105:4176   */\n    tag_205:\n        /* \"#utility.yul\":4044:4182   */\n      pop\n      jump\t// out\n        /* \"#utility.yul\":4188:4343   */\n    tag_120:\n        /* \"#utility.yul\":4242:4247   */\n      0x00\n        /* \"#utility.yul\":4280:4286   */\n      dup2\n        /* \"#utility.yul\":4267:4287   */\n      calldataload\n        /* \"#utility.yul\":4258:4287   */\n      swap1\n      pop\n        /* \"#utility.yul\":4296:4337   */\n      tag_207\n        /* \"#utility.yul\":4331:4336   */\n      dup2\n        /* \"#utility.yul\":4296:4337   */\n      tag_119\n      jump\t// in\n    tag_207:\n        /* \"#utility.yul\":4188:4343   */\n      swap3\n      swap2\n      pop\n      pop\n      jump\t// out\n        /* \"#utility.yul\":4349:4694   */\n    tag_55:\n        /* \"#utility.yul\":4416:4422   */\n      0x00\n        /* \"#utility.yul\":4465:4467   */\n      0x20\n        /* \"#utility.yul\":4453:4462   */\n      dup3\n        /* \"#utility.yul\":4444:4451   */\n      dup5\n        /* \"#utility.yul\":4440:4463   */\n      sub\n        /* \"#utility.yul\":4436:4468   */\n      slt\n        /* \"#utility.yul\":4433:4552   */\n      iszero\n      tag_209\n      jumpi\n        /* \"#utility.yul\":4471:4550   */\n      tag_210\n      tag_103\n      jump\t// in\n    tag_210:\n        /* \"#utility.yul\":4433:4552   */\n    tag_209:\n        /* \"#utility.yul\":4591:4592   */\n      0x00\n        /* \"#utility.yul\":4616:4677   */\n      tag_211\n        /* \"#utility.yul\":4669:4676   */\n      dup5\n        /* \"#utility.yul\":4660:4666   */\n      dup3\n        /* \"#utility.yul\":4649:4658   */\n      dup6\n        /* \"#utility.yul\":4645:4667   */\n      add\n        /* \"#utility.yul\":4616:4677   */\n      tag_120\n      jump\t// in\n    tag_211:\n        /* \"#utility.yul\":4606:4677   */\n      swap2\n      pop\n        /* \"#utility.yul\":4562:4687   */\n      pop\n        /* \"#utility.yul\":4349:4694   */\n      swap3\n      swap2\n      pop\n      pop\n      jump\t// out\n        /* \"#utility.yul\":4700:4817   */\n    tag_121:\n        /* \"#utility.yul\":4809:4810   */\n      0x00\n        /* \"#utility.yul\":4806:4807   */\n      dup1\n        /* \"#utility.yul\":4799:4811   */\n      revert\n        /* \"#utility.yul\":4823:4940   */\n    tag_122:\n        /* \"#utility.yul\":4932:4933   */\n      0x00\n        /* \"#utility.yul\":4929:4930   */\n      dup1\n        /* \"#utility.yul\":4922:4934   */\n      revert\n        /* \"#utility.yul\":4946:5048   */\n    tag_123:\n        /* \"#utility.yul\":4987:4993   */\n      0x00\n        /* \"#utility.yul\":5038:5040   */\n      0x1f\n        /* \"#utility.yul\":5034:5041   */\n      not\n        /* \"#utility.yul\":5029:5031   */\n      0x1f\n        /* \"#utility.yul\":5022:5027   */\n      dup4\n        /* \"#utility.yul\":5018:5032   */\n      add\n        /* \"#utility.yul\":5014:5042   */\n      and\n        /* \"#utility.yul\":5004:5042   */\n      swap1\n      pop\n        /* \"#utility.yul\":4946:5048   */\n      swap2\n      swap1\n      pop\n      jump\t// out\n        /* \"#utility.yul\":5054:5234   */\n    tag_124:\n        /* \"#utility.yul\":5102:5179   */\n      0x4e487b7100000000000000000000000000000000000000000000000000000000\n        /* \"#utility.yul\":5099:5100   */\n      0x00\n        /* \"#utility.yul\":5092:5180   */\n      mstore\n        /* \"#utility.yul\":5199:5203   */\n      0x41\n        /* \"#utility.yul\":5196:5197   */\n      0x04\n        /* \"#utility.yul\":5189:5204   */\n      mstore\n        /* \"#utility.yul\":5223:5227   */\n      0x24\n        /* \"#utility.yul\":5220:5221   */\n      0x00\n        /* \"#utility.yul\":5213:5228   */\n      revert\n        /* \"#utility.yul\":5240:5521   */\n    tag_125:\n        /* \"#utility.yul\":5323:5350   */\n      tag_217\n        /* \"#utility.yul\":5345:5349   */\n      dup3\n        /* \"#utility.yul\":5323:5350   */\n      tag_123\n      jump\t// in\n    tag_217:\n        /* \"#utility.yul\":5315:5321   */\n      dup2\n        /* \"#utility.yul\":5311:5351   */\n      add\n        /* \"#utility.yul\":5453:5459   */\n      dup2\n        /* \"#utility.yul\":5441:5451   */\n      dup2\n        /* \"#utility.yul\":5438:5460   */\n      lt\n        /* \"#utility.yul\":5417:5435   */\n      0xffffffffffffffff\n        /* \"#utility.yul\":5405:5415   */\n      dup3\n        /* \"#utility.yul\":5402:5436   */\n      gt\n        /* \"#utility.yul\":5399:5461   */\n      or\n        /* \"#utility.yul\":5396:5484   */\n      iszero\n      tag_218\n      jumpi\n        /* \"#utility.yul\":5464:5482   */\n      tag_219\n      tag_124\n      jump\t// in\n    tag_219:\n        /* \"#utility.yul\":5396:5484   */\n    tag_218:\n        /* \"#utility.yul\":5504:5514   */\n      dup1\n        /* \"#utility.yul\":5500:5502   */\n      0x40\n        /* \"#utility.yul\":5493:5515   */\n      mstore\n        /* \"#utility.yul\":5283:5521   */\n      pop\n        /* \"#utility.yul\":5240:5521   */\n      pop\n      pop\n      jump\t// out\n        /* \"#utility.yul\":5527:5656   */\n    tag_126:\n        /* \"#utility.yul\":5561:5567   */\n      0x00\n        /* \"#utility.yul\":5588:5608   */\n      tag_221\n      tag_102\n      jump\t// in\n    tag_221:\n        /* \"#utility.yul\":5578:5608   */\n      swap1\n      pop\n        /* \"#utility.yul\":5617:5650   */\n      tag_222\n        /* \"#utility.yul\":5645:5649   */\n      dup3\n        /* \"#utility.yul\":5637:5643   */\n      dup3\n        /* \"#utility.yul\":5617:5650   */\n      tag_125\n      jump\t// in\n    tag_222:\n        /* \"#utility.yul\":5527:5656   */\n      swap2\n      swap1\n      pop\n      jump\t// out\n        /* \"#utility.yul\":5662:5969   */\n    tag_127:\n        /* \"#utility.yul\":5723:5727   */\n      0x00\n        /* \"#utility.yul\":5813:5831   */\n      0xffffffffffffffff\n        /* \"#utility.yul\":5805:5811   */\n      dup3\n        /* \"#utility.yul\":5802:5832   */\n      gt\n        /* \"#utility.yul\":5799:5855   */\n      iszero\n      tag_224\n      jumpi\n        /* \"#utility.yul\":5835:5853   */\n      tag_225\n      tag_124\n      jump\t// in\n    tag_225:\n        /* \"#utility.yul\":5799:5855   */\n    tag_224:\n        /* \"#utility.yul\":5873:5902   */\n      tag_226\n        /* \"#utility.yul\":5895:5901   */\n      dup3\n        /* \"#utility.yul\":5873:5902   */\n      tag_123\n      jump\t// in\n    tag_226:\n        /* \"#utility.yul\":5865:5902   */\n      swap1\n      pop\n        /* \"#utility.yul\":5957:5961   */\n      0x20\n        /* \"#utility.yul\":5951:5955   */\n      dup2\n        /* \"#utility.yul\":5947:5962   */\n      add\n        /* \"#utility.yul\":5939:5962   */\n      swap1\n      pop\n        /* \"#utility.yul\":5662:5969   */\n      swap2\n      swap1\n      pop\n      jump\t// out\n        /* \"#utility.yul\":5975:6121   */\n    tag_128:\n        /* \"#utility.yul\":6072:6078   */\n      dup3\n        /* \"#utility.yul\":6067:6070   */\n      dup2\n        /* \"#utility.yul\":6062:6065   */\n      dup4\n        /* \"#utility.yul\":6049:6079   */\n      calldatacopy\n        /* \"#utility.yul\":6113:6114   */\n      0x00\n        /* \"#utility.yul\":6104:6110   */\n      dup4\n        /* \"#utility.yul\":6099:6102   */\n      dup4\n        /* \"#utility.yul\":6095:6111   */\n      add\n        /* \"#utility.yul\":6088:6115   */\n      mstore\n        /* \"#utility.yul\":5975:6121   */\n      pop\n      pop\n      pop\n      jump\t// out\n        /* \"#utility.yul\":6127:6550   */\n    tag_129:\n        /* \"#utility.yul\":6204:6209   */\n      0x00\n        /* \"#utility.yul\":6229:6294   */\n      tag_229\n        /* \"#utility.yul\":6245:6293   */\n      tag_230\n        /* \"#utility.yul\":6286:6292   */\n      dup5\n        /* \"#utility.yul\":6245:6293   */\n      tag_127\n      jump\t// in\n    tag_230:\n        /* \"#utility.yul\":6229:6294   */\n      tag_126\n      jump\t// in\n    tag_229:\n        /* \"#utility.yul\":6220:6294   */\n      swap1\n      pop\n        /* \"#utility.yul\":6317:6323   */\n      dup3\n        /* \"#utility.yul\":6310:6315   */\n      dup2\n        /* \"#utility.yul\":6303:6324   */\n      mstore\n        /* \"#utility.yul\":6355:6359   */\n      0x20\n        /* \"#utility.yul\":6348:6353   */\n      dup2\n        /* \"#utility.yul\":6344:6360   */\n      add\n        /* \"#utility.yul\":6393:6396   */\n      dup5\n        /* \"#utility.yul\":6384:6390   */\n      dup5\n        /* \"#utility.yul\":6379:6382   */\n      dup5\n        /* \"#utility.yul\":6375:6391   */\n      add\n        /* \"#utility.yul\":6372:6397   */\n      gt\n        /* \"#utility.yul\":6369:6481   */\n      iszero\n      tag_231\n      jumpi\n        /* \"#utility.yul\":6400:6479   */\n      tag_232\n      tag_122\n      jump\t// in\n    tag_232:\n        /* \"#utility.yul\":6369:6481   */\n    tag_231:\n        /* \"#utility.yul\":6490:6544   */\n      tag_233\n        /* \"#utility.yul\":6537:6543   */\n      dup5\n        /* \"#utility.yul\":6532:6535   */\n      dup3\n        /* \"#utility.yul\":6527:6530   */\n      dup6\n        /* \"#utility.yul\":6490:6544   */\n      tag_128\n      jump\t// in\n    tag_233:\n        /* \"#utility.yul\":6210:6550   */\n      pop\n        /* \"#utility.yul\":6127:6550   */\n      swap4\n      swap3\n      pop\n      pop\n      pop\n      jump\t// out\n        /* \"#utility.yul\":6569:6907   */\n    tag_130:\n        /* \"#utility.yul\":6624:6629   */\n      0x00\n        /* \"#utility.yul\":6673:6676   */\n      dup3\n        /* \"#utility.yul\":6666:6670   */\n      0x1f\n        /* \"#utility.yul\":6658:6664   */\n      dup4\n        /* \"#utility.yul\":6654:6671   */\n      add\n        /* \"#utility.yul\":6650:6677   */\n      slt\n        /* \"#utility.yul\":6640:6762   */\n      tag_235\n      jumpi\n        /* \"#utility.yul\":6681:6760   */\n      tag_236\n      tag_121\n      jump\t// in\n    tag_236:\n        /* \"#utility.yul\":6640:6762   */\n    tag_235:\n        /* \"#utility.yul\":6798:6804   */\n      dup2\n        /* \"#utility.yul\":6785:6805   */\n      calldataload\n        /* \"#utility.yul\":6823:6901   */\n      tag_237\n        /* \"#utility.yul\":6897:6900   */\n      dup5\n        /* \"#utility.yul\":6889:6895   */\n      dup3\n        /* \"#utility.yul\":6882:6886   */\n      0x20\n        /* \"#utility.yul\":6874:6880   */\n      dup7\n        /* \"#utility.yul\":6870:6887   */\n      add\n        /* \"#utility.yul\":6823:6901   */\n      tag_129\n      jump\t// in\n    tag_237:\n        /* \"#utility.yul\":6814:6901   */\n      swap2\n      pop\n        /* \"#utility.yul\":6630:6907   */\n      pop\n        /* \"#utility.yul\":6569:6907   */\n      swap3\n      swap2\n      pop\n      pop\n      jump\t// out\n        /* \"#utility.yul\":6913:7726   */\n    tag_60:\n        /* \"#utility.yul\":7007:7013   */\n      0x00\n        /* \"#utility.yul\":7015:7021   */\n      dup1\n        /* \"#utility.yul\":7023:7029   */\n      0x00\n        /* \"#utility.yul\":7072:7074   */\n      0x60\n        /* \"#utility.yul\":7060:7069   */\n      dup5\n        /* \"#utility.yul\":7051:7058   */\n      dup7\n        /* \"#utility.yul\":7047:7070   */\n      sub\n        /* \"#utility.yul\":7043:7075   */\n      slt\n        /* \"#utility.yul\":7040:7159   */\n      iszero\n      tag_239\n      jumpi\n        /* \"#utility.yul\":7078:7157   */\n      tag_240\n      tag_103\n      jump\t// in\n    tag_240:\n        /* \"#utility.yul\":7040:7159   */\n    tag_239:\n        /* \"#utility.yul\":7198:7199   */\n      0x00\n        /* \"#utility.yul\":7223:7284   */\n      tag_241\n        /* \"#utility.yul\":7276:7283   */\n      dup7\n        /* \"#utility.yul\":7267:7273   */\n      dup3\n        /* \"#utility.yul\":7256:7265   */\n      dup8\n        /* \"#utility.yul\":7252:7274   */\n      add\n        /* \"#utility.yul\":7223:7284   */\n      tag_120\n      jump\t// in\n    tag_241:\n        /* \"#utility.yul\":7213:7284   */\n      swap4\n      pop\n        /* \"#utility.yul\":7169:7294   */\n      pop\n        /* \"#utility.yul\":7333:7335   */\n      0x20\n        /* \"#utility.yul\":7359:7412   */\n      tag_242\n        /* \"#utility.yul\":7404:7411   */\n      dup7\n        /* \"#utility.yul\":7395:7401   */\n      dup3\n        /* \"#utility.yul\":7384:7393   */\n      dup8\n        /* \"#utility.yul\":7380:7402   */\n      add\n        /* \"#utility.yul\":7359:7412   */\n      tag_113\n      jump\t// in\n    tag_242:\n        /* \"#utility.yul\":7349:7412   */\n      swap3\n      pop\n        /* \"#utility.yul\":7304:7422   */\n      pop\n        /* \"#utility.yul\":7489:7491   */\n      0x40\n        /* \"#utility.yul\":7478:7487   */\n      dup5\n        /* \"#utility.yul\":7474:7492   */\n      add\n        /* \"#utility.yul\":7461:7493   */\n      calldataload\n        /* \"#utility.yul\":7520:7538   */\n      0xffffffffffffffff\n        /* \"#utility.yul\":7512:7518   */\n      dup2\n        /* \"#utility.yul\":7509:7539   */\n      gt\n        /* \"#utility.yul\":7506:7623   */\n      iszero\n      tag_243\n      jumpi\n        /* \"#utility.yul\":7542:7621   */\n      tag_244\n      tag_104\n      jump\t// in\n    tag_244:\n        /* \"#utility.yul\":7506:7623   */\n    tag_243:\n        /* \"#utility.yul\":7647:7709   */\n      tag_245\n        /* \"#utility.yul\":7701:7708   */\n      dup7\n        /* \"#utility.yul\":7692:7698   */\n      dup3\n        /* \"#utility.yul\":7681:7690   */\n      dup8\n        /* \"#utility.yul\":7677:7699   */\n      add\n        /* \"#utility.yul\":7647:7709   */\n      tag_130\n      jump\t// in\n    tag_245:\n        /* \"#utility.yul\":7637:7709   */\n      swap2\n      pop\n        /* \"#utility.yul\":7432:7719   */\n      pop\n        /* \"#utility.yul\":6913:7726   */\n      swap3\n      pop\n      swap3\n      pop\n      swap3\n      jump\t// out\n        /* \"#utility.yul\":7732:7830   */\n    tag_131:\n        /* \"#utility.yul\":7783:7789   */\n      0x00\n        /* \"#utility.yul\":7817:7822   */\n      dup2\n        /* \"#utility.yul\":7811:7823   */\n      mload\n        /* \"#utility.yul\":7801:7823   */\n      swap1\n      pop\n        /* \"#utility.yul\":7732:7830   */\n      swap2\n      swap1\n      pop\n      jump\t// out\n        /* \"#utility.yul\":7836:8004   */\n    tag_132:\n        /* \"#utility.yul\":7919:7930   */\n      0x00\n        /* \"#utility.yul\":7953:7959   */\n      dup3\n        /* \"#utility.yul\":7948:7951   */\n      dup3\n        /* \"#utility.yul\":7941:7960   */\n      mstore\n        /* \"#utility.yul\":7993:7997   */\n      0x20\n        /* \"#utility.yul\":7988:7991   */\n      dup3\n        /* \"#utility.yul\":7984:7998   */\n      add\n        /* \"#utility.yul\":7969:7998   */\n      swap1\n      pop\n        /* \"#utility.yul\":7836:8004   */\n      swap3\n      swap2\n      pop\n      pop\n      jump\t// out\n        /* \"#utility.yul\":8010:8256   */\n    tag_133:\n        /* \"#utility.yul\":8091:8092   */\n      0x00\n        /* \"#utility.yul\":8101:8214   */\n    tag_249:\n        /* \"#utility.yul\":8115:8121   */\n      dup4\n        /* \"#utility.yul\":8112:8113   */\n      dup2\n        /* \"#utility.yul\":8109:8122   */\n      lt\n        /* \"#utility.yul\":8101:8214   */\n      iszero\n      tag_251\n      jumpi\n        /* \"#utility.yul\":8200:8201   */\n      dup1\n        /* \"#utility.yul\":8195:8198   */\n      dup3\n        /* \"#utility.yul\":8191:8202   */\n      add\n        /* \"#utility.yul\":8185:8203   */\n      mload\n        /* \"#utility.yul\":8181:8182   */\n      dup2\n        /* \"#utility.yul\":8176:8179   */\n      dup5\n        /* \"#utility.yul\":8172:8183   */\n      add\n        /* \"#utility.yul\":8165:8204   */\n      mstore\n        /* \"#utility.yul\":8137:8139   */\n      0x20\n        /* \"#utility.yul\":8134:8135   */\n      dup2\n        /* \"#utility.yul\":8130:8140   */\n      add\n        /* \"#utility.yul\":8125:8140   */\n      swap1\n      pop\n        /* \"#utility.yul\":8101:8214   */\n      jump(tag_249)\n    tag_251:\n        /* \"#utility.yul\":8248:8249   */\n      0x00\n        /* \"#utility.yul\":8239:8245   */\n      dup5\n        /* \"#utility.yul\":8234:8237   */\n      dup5\n        /* \"#utility.yul\":8230:8246   */\n      add\n        /* \"#utility.yul\":8223:8250   */\n      mstore\n        /* \"#utility.yul\":8072:8256   */\n      pop\n        /* \"#utility.yul\":8010:8256   */\n      pop\n      pop\n      pop\n      jump\t// out\n        /* \"#utility.yul\":8262:8635   */\n    tag_134:\n        /* \"#utility.yul\":8348:8351   */\n      0x00\n        /* \"#utility.yul\":8376:8414   */\n      tag_253\n        /* \"#utility.yul\":8408:8413   */\n      dup3\n        /* \"#utility.yul\":8376:8414   */\n      tag_131\n      jump\t// in\n    tag_253:\n        /* \"#utility.yul\":8430:8500   */\n      tag_254\n        /* \"#utility.yul\":8493:8499   */\n      dup2\n        /* \"#utility.yul\":8488:8491   */\n      dup6\n        /* \"#utility.yul\":8430:8500   */\n      tag_132\n      jump\t// in\n    tag_254:\n        /* \"#utility.yul\":8423:8500   */\n      swap4\n      pop\n        /* \"#utility.yul\":8509:8574   */\n      tag_255\n        /* \"#utility.yul\":8567:8573   */\n      dup2\n        /* \"#utility.yul\":8562:8565   */\n      dup6\n        /* \"#utility.yul\":8555:8559   */\n      0x20\n        /* \"#utility.yul\":8548:8553   */\n      dup7\n        /* \"#utility.yul\":8544:8560   */\n      add\n        /* \"#utility.yul\":8509:8574   */\n      tag_133\n      jump\t// in\n    tag_255:\n        /* \"#utility.yul\":8599:8628   */\n      tag_256\n        /* \"#utility.yul\":8621:8627   */\n      dup2\n        /* \"#utility.yul\":8599:8628   */\n      tag_123\n      jump\t// in\n    tag_256:\n        /* \"#utility.yul\":8594:8597   */\n      dup5\n        /* \"#utility.yul\":8590:8629   */\n      add\n        /* \"#utility.yul\":8583:8629   */\n      swap2\n      pop\n        /* \"#utility.yul\":8352:8635   */\n      pop\n        /* \"#utility.yul\":8262:8635   */\n      swap3\n      swap2\n      pop\n      pop\n      jump\t// out\n        /* \"#utility.yul\":8641:8950   */\n    tag_63:\n        /* \"#utility.yul\":8752:8756   */\n      0x00\n        /* \"#utility.yul\":8790:8792   */\n      0x20\n        /* \"#utility.yul\":8779:8788   */\n      dup3\n        /* \"#utility.yul\":8775:8793   */\n      add\n        /* \"#utility.yul\":8767:8793   */\n      swap1\n      pop\n        /* \"#utility.yul\":8839:8848   */\n      dup2\n        /* \"#utility.yul\":8833:8837   */\n      dup2\n        /* \"#utility.yul\":8829:8849   */\n      sub\n        /* \"#utility.yul\":8825:8826   */\n      0x00\n        /* \"#utility.yul\":8814:8823   */\n      dup4\n        /* \"#utility.yul\":8810:8827   */\n      add\n        /* \"#utility.yul\":8803:8850   */\n      mstore\n        /* \"#utility.yul\":8867:8943   */\n      tag_258\n        /* \"#utility.yul\":8938:8942   */\n      dup2\n        /* \"#utility.yul\":8929:8935   */\n      dup5\n        /* \"#utility.yul\":8867:8943   */\n      tag_134\n      jump\t// in\n    tag_258:\n        /* \"#utility.yul\":8859:8943   */\n      swap1\n      pop\n        /* \"#utility.yul\":8641:8950   */\n      swap3\n      swap2\n      pop\n      pop\n      jump\t// out\n        /* \"#utility.yul\":8956:9125   */\n    tag_135:\n        /* \"#utility.yul\":9040:9051   */\n      0x00\n        /* \"#utility.yul\":9074:9080   */\n      dup3\n        /* \"#utility.yul\":9069:9072   */\n      dup3\n        /* \"#utility.yul\":9062:9081   */\n      mstore\n        /* \"#utility.yul\":9114:9118   */\n      0x20\n        /* \"#utility.yul\":9109:9112   */\n      dup3\n        /* \"#utility.yul\":9105:9119   */\n      add\n        /* \"#utility.yul\":9090:9119   */\n      swap1\n      pop\n        /* \"#utility.yul\":8956:9125   */\n      swap3\n      swap2\n      pop\n      pop\n      jump\t// out\n        /* \"#utility.yul\":9131:9313   */\n    tag_136:\n        /* \"#utility.yul\":9271:9305   */\n      0x596f7520617265206e6f7420746865204f776e65722c2041626f7274696e6721\n        /* \"#utility.yul\":9267:9268   */\n      0x00\n        /* \"#utility.yul\":9259:9265   */\n      dup3\n        /* \"#utility.yul\":9255:9269   */\n      add\n        /* \"#utility.yul\":9248:9306   */\n      mstore\n        /* \"#utility.yul\":9131:9313   */\n      pop\n      jump\t// out\n        /* \"#utility.yul\":9319:9685   */\n    tag_137:\n        /* \"#utility.yul\":9461:9464   */\n      0x00\n        /* \"#utility.yul\":9482:9549   */\n      tag_262\n        /* \"#utility.yul\":9546:9548   */\n      0x20\n        /* \"#utility.yul\":9541:9544   */\n      dup4\n        /* \"#utility.yul\":9482:9549   */\n      tag_135\n      jump\t// in\n    tag_262:\n        /* \"#utility.yul\":9475:9549   */\n      swap2\n      pop\n        /* \"#utility.yul\":9558:9651   */\n      tag_263\n        /* \"#utility.yul\":9647:9650   */\n      dup3\n        /* \"#utility.yul\":9558:9651   */\n      tag_136\n      jump\t// in\n    tag_263:\n        /* \"#utility.yul\":9676:9678   */\n      0x20\n        /* \"#utility.yul\":9671:9674   */\n      dup3\n        /* \"#utility.yul\":9667:9679   */\n      add\n        /* \"#utility.yul\":9660:9679   */\n      swap1\n      pop\n        /* \"#utility.yul\":9319:9685   */\n      swap2\n      swap1\n      pop\n      jump\t// out\n        /* \"#utility.yul\":9691:10110   */\n    tag_67:\n        /* \"#utility.yul\":9857:9861   */\n      0x00\n        /* \"#utility.yul\":9895:9897   */\n      0x20\n        /* \"#utility.yul\":9884:9893   */\n      dup3\n        /* \"#utility.yul\":9880:9898   */\n      add\n        /* \"#utility.yul\":9872:9898   */\n      swap1\n      pop\n        /* \"#utility.yul\":9944:9953   */\n      dup2\n        /* \"#utility.yul\":9938:9942   */\n      dup2\n        /* \"#utility.yul\":9934:9954   */\n      sub\n        /* \"#utility.yul\":9930:9931   */\n      0x00\n        /* \"#utility.yul\":9919:9928   */\n      dup4\n        /* \"#utility.yul\":9915:9932   */\n      add\n        /* \"#utility.yul\":9908:9955   */\n      mstore\n        /* \"#utility.yul\":9972:10103   */\n      tag_265\n        /* \"#utility.yul\":10098:10102   */\n      dup2\n        /* \"#utility.yul\":9972:10103   */\n      tag_137\n      jump\t// in\n    tag_265:\n        /* \"#utility.yul\":9964:10103   */\n      swap1\n      pop\n        /* \"#utility.yul\":9691:10110   */\n      swap2\n      swap1\n      pop\n      jump\t// out\n        /* \"#utility.yul\":10116:10351   */\n    tag_138:\n        /* \"#utility.yul\":10256:10290   */\n      0x596f7520617265206e6f74206120477561726469616e204f6620546869732057\n        /* \"#utility.yul\":10252:10253   */\n      0x00\n        /* \"#utility.yul\":10244:10250   */\n      dup3\n        /* \"#utility.yul\":10240:10254   */\n      add\n        /* \"#utility.yul\":10233:10291   */\n      mstore\n        /* \"#utility.yul\":10325:10343   */\n      0x616c6c65742c2041626f7274696e672100000000000000000000000000000000\n        /* \"#utility.yul\":10320:10322   */\n      0x20\n        /* \"#utility.yul\":10312:10318   */\n      dup3\n        /* \"#utility.yul\":10308:10323   */\n      add\n        /* \"#utility.yul\":10301:10344   */\n      mstore\n        /* \"#utility.yul\":10116:10351   */\n      pop\n      jump\t// out\n        /* \"#utility.yul\":10357:10723   */\n    tag_139:\n        /* \"#utility.yul\":10499:10502   */\n      0x00\n        /* \"#utility.yul\":10520:10587   */\n      tag_268\n        /* \"#utility.yul\":10584:10586   */\n      0x30\n        /* \"#utility.yul\":10579:10582   */\n      dup4\n        /* \"#utility.yul\":10520:10587   */\n      tag_135\n      jump\t// in\n    tag_268:\n        /* \"#utility.yul\":10513:10587   */\n      swap2\n      pop\n        /* \"#utility.yul\":10596:10689   */\n      tag_269\n        /* \"#utility.yul\":10685:10688   */\n      dup3\n        /* \"#utility.yul\":10596:10689   */\n      tag_138\n      jump\t// in\n    tag_269:\n        /* \"#utility.yul\":10714:10716   */\n      0x40\n        /* \"#utility.yul\":10709:10712   */\n      dup3\n        /* \"#utility.yul\":10705:10717   */\n      add\n        /* \"#utility.yul\":10698:10717   */\n      swap1\n      pop\n        /* \"#utility.yul\":10357:10723   */\n      swap2\n      swap1\n      pop\n      jump\t// out\n        /* \"#utility.yul\":10729:11148   */\n    tag_76:\n        /* \"#utility.yul\":10895:10899   */\n      0x00\n        /* \"#utility.yul\":10933:10935   */\n      0x20\n        /* \"#utility.yul\":10922:10931   */\n      dup3\n        /* \"#utility.yul\":10918:10936   */\n      add\n        /* \"#utility.yul\":10910:10936   */\n      swap1\n      pop\n        /* \"#utility.yul\":10982:10991   */\n      dup2\n        /* \"#utility.yul\":10976:10980   */\n      dup2\n        /* \"#utility.yul\":10972:10992   */\n      sub\n        /* \"#utility.yul\":10968:10969   */\n      0x00\n        /* \"#utility.yul\":10957:10966   */\n      dup4\n        /* \"#utility.yul\":10953:10970   */\n      add\n        /* \"#utility.yul\":10946:10993   */\n      mstore\n        /* \"#utility.yul\":11010:11141   */\n      tag_271\n        /* \"#utility.yul\":11136:11140   */\n      dup2\n        /* \"#utility.yul\":11010:11141   */\n      tag_139\n      jump\t// in\n    tag_271:\n        /* \"#utility.yul\":11002:11141   */\n      swap1\n      pop\n        /* \"#utility.yul\":10729:11148   */\n      swap2\n      swap1\n      pop\n      jump\t// out\n        /* \"#utility.yul\":11154:11332   */\n    tag_140:\n        /* \"#utility.yul\":11294:11324   */\n      0x596f7520616c726561647920766f7465642c2041626f7274696e672100000000\n        /* \"#utility.yul\":11290:11291   */\n      0x00\n        /* \"#utility.yul\":11282:11288   */\n      dup3\n        /* \"#utility.yul\":11278:11292   */\n      add\n        /* \"#utility.yul\":11271:11325   */\n      mstore\n        /* \"#utility.yul\":11154:11332   */\n      pop\n      jump\t// out\n        /* \"#utility.yul\":11338:11704   */\n    tag_141:\n        /* \"#utility.yul\":11480:11483   */\n      0x00\n        /* \"#utility.yul\":11501:11568   */\n      tag_274\n        /* \"#utility.yul\":11565:11567   */\n      0x1c\n        /* \"#utility.yul\":11560:11563   */\n      dup4\n        /* \"#utility.yul\":11501:11568   */\n      tag_135\n      jump\t// in\n    tag_274:\n        /* \"#utility.yul\":11494:11568   */\n      swap2\n      pop\n        /* \"#utility.yul\":11577:11670   */\n      tag_275\n        /* \"#utility.yul\":11666:11669   */\n      dup3\n        /* \"#utility.yul\":11577:11670   */\n      tag_140\n      jump\t// in\n    tag_275:\n        /* \"#utility.yul\":11695:11697   */\n      0x20\n        /* \"#utility.yul\":11690:11693   */\n      dup3\n        /* \"#utility.yul\":11686:11698   */\n      add\n        /* \"#utility.yul\":11679:11698   */\n      swap1\n      pop\n        /* \"#utility.yul\":11338:11704   */\n      swap2\n      swap1\n      pop\n      jump\t// out\n        /* \"#utility.yul\":11710:12129   */\n    tag_79:\n        /* \"#utility.yul\":11876:11880   */\n      0x00\n        /* \"#utility.yul\":11914:11916   */\n      0x20\n        /* \"#utility.yul\":11903:11912   */\n      dup3\n        /* \"#utility.yul\":11899:11917   */\n      add\n        /* \"#utility.yul\":11891:11917   */\n      swap1\n      pop\n        /* \"#utility.yul\":11963:11972   */\n      dup2\n        /* \"#utility.yul\":11957:11961   */\n      dup2\n        /* \"#utility.yul\":11953:11973   */\n      sub\n        /* \"#utility.yul\":11949:11950   */\n      0x00\n        /* \"#utility.yul\":11938:11947   */\n      dup4\n        /* \"#utility.yul\":11934:11951   */\n      add\n        /* \"#utility.yul\":11927:11974   */\n      mstore\n        /* \"#utility.yul\":11991:12122   */\n      tag_277\n        /* \"#utility.yul\":12117:12121   */\n      dup2\n        /* \"#utility.yul\":11991:12122   */\n      tag_141\n      jump\t// in\n    tag_277:\n        /* \"#utility.yul\":11983:12122   */\n      swap1\n      pop\n        /* \"#utility.yul\":11710:12129   */\n      swap2\n      swap1\n      pop\n      jump\t// out\n        /* \"#utility.yul\":12135:12315   */\n    tag_142:\n        /* \"#utility.yul\":12183:12260   */\n      0x4e487b7100000000000000000000000000000000000000000000000000000000\n        /* \"#utility.yul\":12180:12181   */\n      0x00\n        /* \"#utility.yul\":12173:12261   */\n      mstore\n        /* \"#utility.yul\":12280:12284   */\n      0x11\n        /* \"#utility.yul\":12277:12278   */\n      0x04\n        /* \"#utility.yul\":12270:12285   */\n      mstore\n        /* \"#utility.yul\":12304:12308   */\n      0x24\n        /* \"#utility.yul\":12301:12302   */\n      0x00\n        /* \"#utility.yul\":12294:12309   */\n      revert\n        /* \"#utility.yul\":12321:12554   */\n    tag_82:\n        /* \"#utility.yul\":12360:12363   */\n      0x00\n        /* \"#utility.yul\":12383:12407   */\n      tag_280\n        /* \"#utility.yul\":12401:12406   */\n      dup3\n        /* \"#utility.yul\":12383:12407   */\n      tag_111\n      jump\t// in\n    tag_280:\n        /* \"#utility.yul\":12374:12407   */\n      swap2\n      pop\n        /* \"#utility.yul\":12429:12495   */\n      0xffffffffffffffffffffffffffffffffffffffffffffffffffffffffffffffff\n        /* \"#utility.yul\":12422:12427   */\n      dup3\n        /* \"#utility.yul\":12419:12496   */\n      sub\n        /* \"#utility.yul\":12416:12519   */\n      tag_281\n      jumpi\n        /* \"#utility.yul\":12499:12517   */\n      tag_282\n      tag_142\n      jump\t// in\n    tag_282:\n        /* \"#utility.yul\":12416:12519   */\n    tag_281:\n        /* \"#utility.yul\":12546:12547   */\n      0x01\n        /* \"#utility.yul\":12539:12544   */\n      dup3\n        /* \"#utility.yul\":12535:12548   */\n      add\n        /* \"#utility.yul\":12528:12548   */\n      swap1\n      pop\n        /* \"#utility.yul\":12321:12554   */\n      swap2\n      swap1\n      pop\n      jump\t// out\n        /* \"#utility.yul\":12560:12809   */\n    tag_143:\n        /* \"#utility.yul\":12700:12734   */\n      0x596f752061726520747279696e6720746f2073656e64206d6f7265207468616e\n        /* \"#utility.yul\":12696:12697   */\n      0x00\n        /* \"#utility.yul\":12688:12694   */\n      dup3\n        /* \"#utility.yul\":12684:12698   */\n      add\n        /* \"#utility.yul\":12677:12735   */\n      mstore\n        /* \"#utility.yul\":12769:12801   */\n      0x20796f752061726520616c6c6f77656420746f2c2041626f7274696e67210000\n        /* \"#utility.yul\":12764:12766   */\n      0x20\n        /* \"#utility.yul\":12756:12762   */\n      dup3\n        /* \"#utility.yul\":12752:12767   */\n      add\n        /* \"#utility.yul\":12745:12802   */\n      mstore\n        /* \"#utility.yul\":12560:12809   */\n      pop\n      jump\t// out\n        /* \"#utility.yul\":12815:13181   */\n    tag_144:\n        /* \"#utility.yul\":12957:12960   */\n      0x00\n        /* \"#utility.yul\":12978:13045   */\n      tag_285\n        /* \"#utility.yul\":13042:13044   */\n      0x3e\n        /* \"#utility.yul\":13037:13040   */\n      dup4\n        /* \"#utility.yul\":12978:13045   */\n      tag_135\n      jump\t// in\n    tag_285:\n        /* \"#utility.yul\":12971:13045   */\n      swap2\n      pop\n        /* \"#utility.yul\":13054:13147   */\n      tag_286\n        /* \"#utility.yul\":13143:13146   */\n      dup3\n        /* \"#utility.yul\":13054:13147   */\n      tag_143\n      jump\t// in\n    tag_286:\n        /* \"#utility.yul\":13172:13174   */\n      0x40\n        /* \"#utility.yul\":13167:13170   */\n      dup3\n        /* \"#utility.yul\":13163:13175   */\n      add\n        /* \"#utility.yul\":13156:13175   */\n      swap1\n      pop\n        /* \"#utility.yul\":12815:13181   */\n      swap2\n      swap1\n      pop\n      jump\t// out\n        /* \"#utility.yul\":13187:13606   */\n    tag_88:\n        /* \"#utility.yul\":13353:13357   */\n      0x00\n        /* \"#utility.yul\":13391:13393   */\n      0x20\n        /* \"#utility.yul\":13380:13389   */\n      dup3\n        /* \"#utility.yul\":13376:13394   */\n      add\n        /* \"#utility.yul\":13368:13394   */\n      swap1\n      pop\n        /* \"#utility.yul\":13440:13449   */\n      dup2\n        /* \"#utility.yul\":13434:13438   */\n      dup2\n        /* \"#utility.yul\":13430:13450   */\n      sub\n        /* \"#utility.yul\":13426:13427   */\n      0x00\n        /* \"#utility.yul\":13415:13424   */\n      dup4\n        /* \"#utility.yul\":13411:13428   */\n      add\n        /* \"#utility.yul\":13404:13451   */\n      mstore\n        /* \"#utility.yul\":13468:13599   */\n      tag_288\n        /* \"#utility.yul\":13594:13598   */\n      dup2\n        /* \"#utility.yul\":13468:13599   */\n      tag_144\n      jump\t// in\n    tag_288:\n        /* \"#utility.yul\":13460:13599   */\n      swap1\n      pop\n        /* \"#utility.yul\":13187:13606   */\n      swap2\n      swap1\n      pop\n      jump\t// out\n        /* \"#utility.yul\":13612:13908   */\n    tag_145:\n        /* \"#utility.yul\":13752:13786   */\n      0x596f7520617265206e6f7420616c6c6f77656420746f2073656e6420616e7974\n        /* \"#utility.yul\":13748:13749   */\n      0x00\n        /* \"#utility.yul\":13740:13746   */\n      dup3\n        /* \"#utility.yul\":13736:13750   */\n      add\n        /* \"#utility.yul\":13729:13787   */\n      mstore\n        /* \"#utility.yul\":13821:13855   */\n      0x68696e672066726f6d207468697320736d61727420636f6e74726163742c2041\n        /* \"#utility.yul\":13816:13818   */\n      0x20\n        /* \"#utility.yul\":13808:13814   */\n      dup3\n        /* \"#utility.yul\":13804:13819   */\n      add\n        /* \"#utility.yul\":13797:13856   */\n      mstore\n        /* \"#utility.yul\":13890:13900   */\n      0x626f7274696e6721000000000000000000000000000000000000000000000000\n        /* \"#utility.yul\":13885:13887   */\n      0x40\n        /* \"#utility.yul\":13877:13883   */\n      dup3\n        /* \"#utility.yul\":13873:13888   */\n      add\n        /* \"#utility.yul\":13866:13901   */\n      mstore\n        /* \"#utility.yul\":13612:13908   */\n      pop\n      jump\t// out\n        /* \"#utility.yul\":13914:14280   */\n    tag_146:\n        /* \"#utility.yul\":14056:14059   */\n      0x00\n        /* \"#utility.yul\":14077:14144   */\n      tag_291\n        /* \"#utility.yul\":14141:14143   */\n      0x48\n        /* \"#utility.yul\":14136:14139   */\n      dup4\n        /* \"#utility.yul\":14077:14144   */\n      tag_135\n      jump\t// in\n    tag_291:\n        /* \"#utility.yul\":14070:14144   */\n      swap2\n      pop\n        /* \"#utility.yul\":14153:14246   */\n      tag_292\n        /* \"#utility.yul\":14242:14245   */\n      dup3\n        /* \"#utility.yul\":14153:14246   */\n      tag_145\n      jump\t// in\n    tag_292:\n        /* \"#utility.yul\":14271:14273   */\n      0x60\n        /* \"#utility.yul\":14266:14269   */\n      dup3\n        /* \"#utility.yul\":14262:14274   */\n      add\n        /* \"#utility.yul\":14255:14274   */\n      swap1\n      pop\n        /* \"#utility.yul\":13914:14280   */\n      swap2\n      swap1\n      pop\n      jump\t// out\n        /* \"#utility.yul\":14286:14705   */\n    tag_91:\n        /* \"#utility.yul\":14452:14456   */\n      0x00\n        /* \"#utility.yul\":14490:14492   */\n      0x20\n        /* \"#utility.yul\":14479:14488   */\n      dup3\n        /* \"#utility.yul\":14475:14493   */\n      add\n        /* \"#utility.yul\":14467:14493   */\n      swap1\n      pop\n        /* \"#utility.yul\":14539:14548   */\n      dup2\n        /* \"#utility.yul\":14533:14537   */\n      dup2\n        /* \"#utility.yul\":14529:14549   */\n      sub\n        /* \"#utility.yul\":14525:14526   */\n      0x00\n        /* \"#utility.yul\":14514:14523   */\n      dup4\n        /* \"#utility.yul\":14510:14527   */\n      add\n        /* \"#utility.yul\":14503:14550   */\n      mstore\n        /* \"#utility.yul\":14567:14698   */\n      tag_294\n        /* \"#utility.yul\":14693:14697   */\n      dup2\n        /* \"#utility.yul\":14567:14698   */\n      tag_146\n      jump\t// in\n    tag_294:\n        /* \"#utility.yul\":14559:14698   */\n      swap1\n      pop\n        /* \"#utility.yul\":14286:14705   */\n      swap2\n      swap1\n      pop\n      jump\t// out\n        /* \"#utility.yul\":14711:14905   */\n    tag_93:\n        /* \"#utility.yul\":14751:14755   */\n      0x00\n        /* \"#utility.yul\":14771:14791   */\n      tag_296\n        /* \"#utility.yul\":14789:14790   */\n      dup3\n        /* \"#utility.yul\":14771:14791   */\n      tag_111\n      jump\t// in\n    tag_296:\n        /* \"#utility.yul\":14766:14791   */\n      swap2\n      pop\n        /* \"#utility.yul\":14805:14825   */\n      tag_297\n        /* \"#utility.yul\":14823:14824   */\n      dup4\n        /* \"#utility.yul\":14805:14825   */\n      tag_111\n      jump\t// in\n    tag_297:\n        /* \"#utility.yul\":14800:14825   */\n      swap3\n      pop\n        /* \"#utility.yul\":14849:14850   */\n      dup3\n        /* \"#utility.yul\":14846:14847   */\n      dup3\n        /* \"#utility.yul\":14842:14851   */\n      sub\n        /* \"#utility.yul\":14834:14851   */\n      swap1\n      pop\n        /* \"#utility.yul\":14873:14874   */\n      dup2\n        /* \"#utility.yul\":14867:14871   */\n      dup2\n        /* \"#utility.yul\":14864:14875   */\n      gt\n        /* \"#utility.yul\":14861:14898   */\n      iszero\n      tag_298\n      jumpi\n        /* \"#utility.yul\":14878:14896   */\n      tag_299\n      tag_142\n      jump\t// in\n    tag_299:\n        /* \"#utility.yul\":14861:14898   */\n    tag_298:\n        /* \"#utility.yul\":14711:14905   */\n      swap3\n      swap2\n      pop\n      pop\n      jump\t// out\n        /* \"#utility.yul\":14911:15058   */\n    tag_147:\n        /* \"#utility.yul\":15012:15023   */\n      0x00\n        /* \"#utility.yul\":15049:15052   */\n      dup2\n        /* \"#utility.yul\":15034:15052   */\n      swap1\n      pop\n        /* \"#utility.yul\":14911:15058   */\n      swap3\n      swap2\n      pop\n      pop\n      jump\t// out\n        /* \"#utility.yul\":15064:15450   */\n    tag_148:\n        /* \"#utility.yul\":15168:15171   */\n      0x00\n        /* \"#utility.yul\":15196:15234   */\n      tag_302\n        /* \"#utility.yul\":15228:15233   */\n      dup3\n        /* \"#utility.yul\":15196:15234   */\n      tag_131\n      jump\t// in\n    tag_302:\n        /* \"#utility.yul\":15250:15338   */\n      tag_303\n        /* \"#utility.yul\":15331:15337   */\n      dup2\n        /* \"#utility.yul\":15326:15329   */\n      dup6\n        /* \"#utility.yul\":15250:15338   */\n      tag_147\n      jump\t// in\n    tag_303:\n        /* \"#utility.yul\":15243:15338   */\n      swap4\n      pop\n        /* \"#utility.yul\":15347:15412   */\n      tag_304\n        /* \"#utility.yul\":15405:15411   */\n      dup2\n        /* \"#utility.yul\":15400:15403   */\n      dup6\n        /* \"#utility.yul\":15393:15397   */\n      0x20\n        /* \"#utility.yul\":15386:15391   */\n      dup7\n        /* \"#utility.yul\":15382:15398   */\n      add\n        /* \"#utility.yul\":15347:15412   */\n      tag_133\n      jump\t// in\n    tag_304:\n        /* \"#utility.yul\":15437:15443   */\n      dup1\n        /* \"#utility.yul\":15432:15435   */\n      dup5\n        /* \"#utility.yul\":15428:15444   */\n      add\n        /* \"#utility.yul\":15421:15444   */\n      swap2\n      pop\n        /* \"#utility.yul\":15172:15450   */\n      pop\n        /* \"#utility.yul\":15064:15450   */\n      swap3\n      swap2\n      pop\n      pop\n      jump\t// out\n        /* \"#utility.yul\":15456:15727   */\n    tag_95:\n        /* \"#utility.yul\":15586:15589   */\n      0x00\n        /* \"#utility.yul\":15608:15701   */\n      tag_306\n        /* \"#utility.yul\":15697:15700   */\n      dup3\n        /* \"#utility.yul\":15688:15694   */\n      dup5\n        /* \"#utility.yul\":15608:15701   */\n      tag_148\n      jump\t// in\n    tag_306:\n        /* \"#utility.yul\":15601:15701   */\n      swap2\n      pop\n        /* \"#utility.yul\":15718:15721   */\n      dup2\n        /* \"#utility.yul\":15711:15721   */\n      swap1\n      pop\n        /* \"#utility.yul\":15456:15727   */\n      swap3\n      swap2\n      pop\n      pop\n      jump\t// out\n        /* \"#utility.yul\":15733:15953   */\n    tag_149:\n        /* \"#utility.yul\":15873:15907   */\n      0x41626f7274696e672c2043616c6c20776173206e6f7420537563636573736675\n        /* \"#utility.yul\":15869:15870   */\n      0x00\n        /* \"#utility.yul\":15861:15867   */\n      dup3\n        /* \"#utility.yul\":15857:15871   */\n      add\n        /* \"#utility.yul\":15850:15908   */\n      mstore\n        /* \"#utility.yul\":15942:15945   */\n      0x6c00000000000000000000000000000000000000000000000000000000000000\n        /* \"#utility.yul\":15937:15939   */\n      0x20\n        /* \"#utility.yul\":15929:15935   */\n      dup3\n        /* \"#utility.yul\":15925:15940   */\n      add\n        /* \"#utility.yul\":15918:15946   */\n      mstore\n        /* \"#utility.yul\":15733:15953   */\n      pop\n      jump\t// out\n        /* \"#utility.yul\":15959:16325   */\n    tag_150:\n        /* \"#utility.yul\":16101:16104   */\n      0x00\n        /* \"#utility.yul\":16122:16189   */\n      tag_309\n        /* \"#utility.yul\":16186:16188   */\n      0x21\n        /* \"#utility.yul\":16181:16184   */\n      dup4\n        /* \"#utility.yul\":16122:16189   */\n      tag_135\n      jump\t// in\n    tag_309:\n        /* \"#utility.yul\":16115:16189   */\n      swap2\n      pop\n        /* \"#utility.yul\":16198:16291   */\n      tag_310\n        /* \"#utility.yul\":16287:16290   */\n      dup3\n        /* \"#utility.yul\":16198:16291   */\n      tag_149\n      jump\t// in\n    tag_310:\n        /* \"#utility.yul\":16316:16318   */\n      0x40\n        /* \"#utility.yul\":16311:16314   */\n      dup3\n        /* \"#utility.yul\":16307:16319   */\n      add\n        /* \"#utility.yul\":16300:16319   */\n      swap1\n      pop\n        /* \"#utility.yul\":15959:16325   */\n      swap2\n      swap1\n      pop\n      jump\t// out\n        /* \"#utility.yul\":16331:16750   */\n    tag_101:\n        /* \"#utility.yul\":16497:16501   */\n      0x00\n        /* \"#utility.yul\":16535:16537   */\n      0x20\n        /* \"#utility.yul\":16524:16533   */\n      dup3\n        /* \"#utility.yul\":16520:16538   */\n      add\n        /* \"#utility.yul\":16512:16538   */\n      swap1\n      pop\n        /* \"#utility.yul\":16584:16593   */\n      dup2\n        /* \"#utility.yul\":16578:16582   */\n      dup2\n        /* \"#utility.yul\":16574:16594   */\n      sub\n        /* \"#utility.yul\":16570:16571   */\n      0x00\n        /* \"#utility.yul\":16559:16568   */\n      dup4\n        /* \"#utility.yul\":16555:16572   */\n      add\n        /* \"#utility.yul\":16548:16595   */\n      mstore\n        /* \"#utility.yul\":16612:16743   */\n      tag_312\n        /* \"#utility.yul\":16738:16742   */\n      dup2\n        /* \"#utility.yul\":16612:16743   */\n      tag_150\n      jump\t// in\n    tag_312:\n        /* \"#utility.yul\":16604:16743   */\n      swap1\n      pop\n        /* \"#utility.yul\":16331:16750   */\n      swap2\n      swap1\n      pop\n      jump\t// out\n\n    auxdata: 0xa2646970667358221220bf7630f8918b8c5be35ce09b1fbbb0fe79259691fb4157812a730295db5b033164736f6c63430008160033\n}\n",
				"bytecode": {
					"linkReferences": {},
					"object": "608060405234801561000f575f80fd5b50335f806101000a81548173ffffffffffffffffffffffffffffffffffffffff021916908373ffffffffffffffffffffffffffffffffffffffff1602179055506113588061005c5f395ff3fe608060405260043610610089575f3560e01c80633e5beab9116100585780633e5beab91461015c57806358e404b1146101985780638da5cb5b146101c2578063b1f8100d146101ec578063be45fd621461021457610090565b80630633b14a146100945780630bc605ad146100d0578063310ec4a71461010c57806335be453b1461013457610090565b3661009057005b5f80fd5b34801561009f575f80fd5b506100ba60048036038101906100b59190610abe565b610250565b6040516100c79190610b03565b60405180910390f35b3480156100db575f80fd5b506100f660048036038101906100f19190610abe565b61026d565b6040516101039190610b03565b60405180910390f35b348015610117575f80fd5b50610132600480360381019061012d9190610b4f565b61028a565b005b34801561013f575f80fd5b5061015a60048036038101906101559190610bb7565b610414565b005b348015610167575f80fd5b50610182600480360381019061017d9190610abe565b6104f9565b60405161018f9190610c04565b60405180910390f35b3480156101a3575f80fd5b506101ac61050e565b6040516101b99190610c04565b60405180910390f35b3480156101cd575f80fd5b506101d6610513565b6040516101e39190610c3d565b60405180910390f35b3480156101f7575f80fd5b50610212600480360381019061020d9190610c80565b610536565b005b34801561021f575f80fd5b5061023a60048036038101906102359190610de7565b6107ea565b6040516102479190610ecd565b60405180910390f35b6003602052805f5260405f205f915054906101000a900460ff1681565b6002602052805f5260405f205f915054906101000a900460ff1681565b5f8054906101000a900473ffffffffffffffffffffffffffffffffffffffff1673ffffffffffffffffffffffffffffffffffffffff163373ffffffffffffffffffffffffffffffffffffffff1614610317576040517f08c379a000000000000000000000000000000000000000000000000000000000815260040161030e90610f47565b60405180910390fd5b8060015f8473ffffffffffffffffffffffffffffffffffffffff1673ffffffffffffffffffffffffffffffffffffffff1681526020019081526020015f20819055505f8111156103bb57600160025f8473ffffffffffffffffffffffffffffffffffffffff1673ffffffffffffffffffffffffffffffffffffffff1681526020019081526020015f205f6101000a81548160ff021916908315150217905550610410565b5f60025f8473ffffffffffffffffffffffffffffffffffffffff1673ffffffffffffffffffffffffffffffffffffffff1681526020019081526020015f205f6101000a81548160ff0219169083151502179055505b5050565b5f8054906101000a900473ffffffffffffffffffffffffffffffffffffffff1673ffffffffffffffffffffffffffffffffffffffff163373ffffffffffffffffffffffffffffffffffffffff16146104a1576040517f08c379a000000000000000000000000000000000000000000000000000000000815260040161049890610f47565b60405180910390fd5b8060035f8473ffffffffffffffffffffffffffffffffffffffff1673ffffffffffffffffffffffffffffffffffffffff1681526020019081526020015f205f6101000a81548160ff0219169083151502179055505050565b6001602052805f5260405f205f915090505481565b600381565b5f8054906101000a900473ffffffffffffffffffffffffffffffffffffffff1681565b60035f3373ffffffffffffffffffffffffffffffffffffffff1673ffffffffffffffffffffffffffffffffffffffff1681526020019081526020015f205f9054906101000a900460ff166105bf576040517f08c379a00000000000000000000000000000000000000000000000000000000081526004016105b690610fd5565b60405180910390fd5b5f151560065f8373ffffffffffffffffffffffffffffffffffffffff1673ffffffffffffffffffffffffffffffffffffffff1681526020019081526020015f205f3373ffffffffffffffffffffffffffffffffffffffff1673ffffffffffffffffffffffffffffffffffffffff1681526020019081526020015f205f9054906101000a900460ff16151514610689576040517f08c379a00000000000000000000000000000000000000000000000000000000081526004016106809061103d565b60405180910390fd5b60045f9054906101000a900473ffffffffffffffffffffffffffffffffffffffff1673ffffffffffffffffffffffffffffffffffffffff168173ffffffffffffffffffffffffffffffffffffffff1614610725578060045f6101000a81548173ffffffffffffffffffffffffffffffffffffffff021916908373ffffffffffffffffffffffffffffffffffffffff1602179055505f6005819055505b60055f81548092919061073790611088565b91905055506003600554106107e75760045f9054906101000a900473ffffffffffffffffffffffffffffffffffffffff165f806101000a81548173ffffffffffffffffffffffffffffffffffffffff021916908373ffffffffffffffffffffffffffffffffffffffff1602179055505f60045f6101000a81548173ffffffffffffffffffffffffffffffffffffffff021916908373ffffffffffffffffffffffffffffffffffffffff1602179055505b50565b60605f8054906101000a900473ffffffffffffffffffffffffffffffffffffffff1673ffffffffffffffffffffffffffffffffffffffff163373ffffffffffffffffffffffffffffffffffffffff161461099b578260015f3373ffffffffffffffffffffffffffffffffffffffff1673ffffffffffffffffffffffffffffffffffffffff1681526020019081526020015f205410156108be576040517f08c379a00000000000000000000000000000000000000000000000000000000081526004016108b59061113f565b60405180910390fd5b60025f3373ffffffffffffffffffffffffffffffffffffffff1673ffffffffffffffffffffffffffffffffffffffff1681526020019081526020015f205f9054906101000a900460ff16610947576040517f08c379a000000000000000000000000000000000000000000000000000000000815260040161093e906111f3565b60405180910390fd5b8260015f3373ffffffffffffffffffffffffffffffffffffffff1673ffffffffffffffffffffffffffffffffffffffff1681526020019081526020015f205f8282546109939190611211565b925050819055505b5f808573ffffffffffffffffffffffffffffffffffffffff1685856040516109c3919061127e565b5f6040518083038185875af1925050503d805f81146109fd576040519150601f19603f3d011682016040523d82523d5f602084013e610a02565b606091505b509150915081610a47576040517f08c379a0000000000000000000000000000000000000000000000000000000008152600401610a3e90611304565b60405180910390fd5b80925050509392505050565b5f604051905090565b5f80fd5b5f80fd5b5f73ffffffffffffffffffffffffffffffffffffffff82169050919050565b5f610a8d82610a64565b9050919050565b610a9d81610a83565b8114610aa7575f80fd5b50565b5f81359050610ab881610a94565b92915050565b5f60208284031215610ad357610ad2610a5c565b5b5f610ae084828501610aaa565b91505092915050565b5f8115159050919050565b610afd81610ae9565b82525050565b5f602082019050610b165f830184610af4565b92915050565b5f819050919050565b610b2e81610b1c565b8114610b38575f80fd5b50565b5f81359050610b4981610b25565b92915050565b5f8060408385031215610b6557610b64610a5c565b5b5f610b7285828601610aaa565b9250506020610b8385828601610b3b565b9150509250929050565b610b9681610ae9565b8114610ba0575f80fd5b50565b5f81359050610bb181610b8d565b92915050565b5f8060408385031215610bcd57610bcc610a5c565b5b5f610bda85828601610aaa565b9250506020610beb85828601610ba3565b9150509250929050565b610bfe81610b1c565b82525050565b5f602082019050610c175f830184610bf5565b92915050565b5f610c2782610a64565b9050919050565b610c3781610c1d565b82525050565b5f602082019050610c505f830184610c2e565b92915050565b610c5f81610c1d565b8114610c69575f80fd5b50565b5f81359050610c7a81610c56565b92915050565b5f60208284031215610c9557610c94610a5c565b5b5f610ca284828501610c6c565b91505092915050565b5f80fd5b5f80fd5b5f601f19601f8301169050919050565b7f4e487b71000000000000000000000000000000000000000000000000000000005f52604160045260245ffd5b610cf982610cb3565b810181811067ffffffffffffffff82111715610d1857610d17610cc3565b5b80604052505050565b5f610d2a610a53565b9050610d368282610cf0565b919050565b5f67ffffffffffffffff821115610d5557610d54610cc3565b5b610d5e82610cb3565b9050602081019050919050565b828183375f83830152505050565b5f610d8b610d8684610d3b565b610d21565b905082815260208101848484011115610da757610da6610caf565b5b610db2848285610d6b565b509392505050565b5f82601f830112610dce57610dcd610cab565b5b8135610dde848260208601610d79565b91505092915050565b5f805f60608486031215610dfe57610dfd610a5c565b5b5f610e0b86828701610c6c565b9350506020610e1c86828701610b3b565b925050604084013567ffffffffffffffff811115610e3d57610e3c610a60565b5b610e4986828701610dba565b9150509250925092565b5f81519050919050565b5f82825260208201905092915050565b5f5b83811015610e8a578082015181840152602081019050610e6f565b5f8484015250505050565b5f610e9f82610e53565b610ea98185610e5d565b9350610eb9818560208601610e6d565b610ec281610cb3565b840191505092915050565b5f6020820190508181035f830152610ee58184610e95565b905092915050565b5f82825260208201905092915050565b7f596f7520617265206e6f7420746865204f776e65722c2041626f7274696e67215f82015250565b5f610f31602083610eed565b9150610f3c82610efd565b602082019050919050565b5f6020820190508181035f830152610f5e81610f25565b9050919050565b7f596f7520617265206e6f74206120477561726469616e204f66205468697320575f8201527f616c6c65742c2041626f7274696e672100000000000000000000000000000000602082015250565b5f610fbf603083610eed565b9150610fca82610f65565b604082019050919050565b5f6020820190508181035f830152610fec81610fb3565b9050919050565b7f596f7520616c726561647920766f7465642c2041626f7274696e6721000000005f82015250565b5f611027601c83610eed565b915061103282610ff3565b602082019050919050565b5f6020820190508181035f8301526110548161101b565b9050919050565b7f4e487b71000000000000000000000000000000000000000000000000000000005f52601160045260245ffd5b5f61109282610b1c565b91507fffffffffffffffffffffffffffffffffffffffffffffffffffffffffffffffff82036110c4576110c361105b565b5b600182019050919050565b7f596f752061726520747279696e6720746f2073656e64206d6f7265207468616e5f8201527f20796f752061726520616c6c6f77656420746f2c2041626f7274696e67210000602082015250565b5f611129603e83610eed565b9150611134826110cf565b604082019050919050565b5f6020820190508181035f8301526111568161111d565b9050919050565b7f596f7520617265206e6f7420616c6c6f77656420746f2073656e6420616e79745f8201527f68696e672066726f6d207468697320736d61727420636f6e74726163742c204160208201527f626f7274696e6721000000000000000000000000000000000000000000000000604082015250565b5f6111dd604883610eed565b91506111e88261115d565b606082019050919050565b5f6020820190508181035f83015261120a816111d1565b9050919050565b5f61121b82610b1c565b915061122683610b1c565b925082820390508181111561123e5761123d61105b565b5b92915050565b5f81905092915050565b5f61125882610e53565b6112628185611244565b9350611272818560208601610e6d565b80840191505092915050565b5f611289828461124e565b915081905092915050565b7f41626f7274696e672c2043616c6c20776173206e6f74205375636365737366755f8201527f6c00000000000000000000000000000000000000000000000000000000000000602082015250565b5f6112ee602183610eed565b91506112f982611294565b604082019050919050565b5f6020820190508181035f83015261131b816112e2565b905091905056fea2646970667358221220bf7630f8918b8c5be35ce09b1fbbb0fe79259691fb4157812a730295db5b033164736f6c63430008160033",
					"opcodes": "PUSH1 0x80 PUSH1 0x40 MSTORE CALLVALUE DUP1 ISZERO PUSH2 0xF JUMPI PUSH0 DUP1 REVERT JUMPDEST POP CALLER PUSH0 DUP1 PUSH2 0x100 EXP DUP2 SLOAD DUP2 PUSH20 0xFFFFFFFFFFFFFFFFFFFFFFFFFFFFFFFFFFFFFFFF MUL NOT AND SWAP1 DUP4 PUSH20 0xFFFFFFFFFFFFFFFFFFFFFFFFFFFFFFFFFFFFFFFF AND MUL OR SWAP1 SSTORE POP PUSH2 0x1358 DUP1 PUSH2 0x5C PUSH0 CODECOPY PUSH0 RETURN INVALID PUSH1 0x80 PUSH1 0x40 MSTORE PUSH1 0x4 CALLDATASIZE LT PUSH2 0x89 JUMPI PUSH0 CALLDATALOAD PUSH1 0xE0 SHR DUP1 PUSH4 0x3E5BEAB9 GT PUSH2 0x58 JUMPI DUP1 PUSH4 0x3E5BEAB9 EQ PUSH2 0x15C JUMPI DUP1 PUSH4 0x58E404B1 EQ PUSH2 0x198 JUMPI DUP1 PUSH4 0x8DA5CB5B EQ PUSH2 0x1C2 JUMPI DUP1 PUSH4 0xB1F8100D EQ PUSH2 0x1EC JUMPI DUP1 PUSH4 0xBE45FD62 EQ PUSH2 0x214 JUMPI PUSH2 0x90 JUMP JUMPDEST DUP1 PUSH4 0x633B14A EQ PUSH2 0x94 JUMPI DUP1 PUSH4 0xBC605AD EQ PUSH2 0xD0 JUMPI DUP1 PUSH4 0x310EC4A7 EQ PUSH2 0x10C JUMPI DUP1 PUSH4 0x35BE453B EQ PUSH2 0x134 JUMPI PUSH2 0x90 JUMP JUMPDEST CALLDATASIZE PUSH2 0x90 JUMPI STOP JUMPDEST PUSH0 DUP1 REVERT JUMPDEST CALLVALUE DUP1 ISZERO PUSH2 0x9F JUMPI PUSH0 DUP1 REVERT JUMPDEST POP PUSH2 0xBA PUSH1 0x4 DUP1 CALLDATASIZE SUB DUP2 ADD SWAP1 PUSH2 0xB5 SWAP2 SWAP1 PUSH2 0xABE JUMP JUMPDEST PUSH2 0x250 JUMP JUMPDEST PUSH1 0x40 MLOAD PUSH2 0xC7 SWAP2 SWAP1 PUSH2 0xB03 JUMP JUMPDEST PUSH1 0x40 MLOAD DUP1 SWAP2 SUB SWAP1 RETURN JUMPDEST CALLVALUE DUP1 ISZERO PUSH2 0xDB JUMPI PUSH0 DUP1 REVERT JUMPDEST POP PUSH2 0xF6 PUSH1 0x4 DUP1 CALLDATASIZE SUB DUP2 ADD SWAP1 PUSH2 0xF1 SWAP2 SWAP1 PUSH2 0xABE JUMP JUMPDEST PUSH2 0x26D JUMP JUMPDEST PUSH1 0x40 MLOAD PUSH2 0x103 SWAP2 SWAP1 PUSH2 0xB03 JUMP JUMPDEST PUSH1 0x40 MLOAD DUP1 SWAP2 SUB SWAP1 RETURN JUMPDEST CALLVALUE DUP1 ISZERO PUSH2 0x117 JUMPI PUSH0 DUP1 REVERT JUMPDEST POP PUSH2 0x132 PUSH1 0x4 DUP1 CALLDATASIZE SUB DUP2 ADD SWAP1 PUSH2 0x12D SWAP2 SWAP1 PUSH2 0xB4F JUMP JUMPDEST PUSH2 0x28A JUMP JUMPDEST STOP JUMPDEST CALLVALUE DUP1 ISZERO PUSH2 0x13F JUMPI PUSH0 DUP1 REVERT JUMPDEST POP PUSH2 0x15A PUSH1 0x4 DUP1 CALLDATASIZE SUB DUP2 ADD SWAP1 PUSH2 0x155 SWAP2 SWAP1 PUSH2 0xBB7 JUMP JUMPDEST PUSH2 0x414 JUMP JUMPDEST STOP JUMPDEST CALLVALUE DUP1 ISZERO PUSH2 0x167 JUMPI PUSH0 DUP1 REVERT JUMPDEST POP PUSH2 0x182 PUSH1 0x4 DUP1 CALLDATASIZE SUB DUP2 ADD SWAP1 PUSH2 0x17D SWAP2 SWAP1 PUSH2 0xABE JUMP JUMPDEST PUSH2 0x4F9 JUMP JUMPDEST PUSH1 0x40 MLOAD PUSH2 0x18F SWAP2 SWAP1 PUSH2 0xC04 JUMP JUMPDEST PUSH1 0x40 MLOAD DUP1 SWAP2 SUB SWAP1 RETURN JUMPDEST CALLVALUE DUP1 ISZERO PUSH2 0x1A3 JUMPI PUSH0 DUP1 REVERT JUMPDEST POP PUSH2 0x1AC PUSH2 0x50E JUMP JUMPDEST PUSH1 0x40 MLOAD PUSH2 0x1B9 SWAP2 SWAP1 PUSH2 0xC04 JUMP JUMPDEST PUSH1 0x40 MLOAD DUP1 SWAP2 SUB SWAP1 RETURN JUMPDEST CALLVALUE DUP1 ISZERO PUSH2 0x1CD JUMPI PUSH0 DUP1 REVERT JUMPDEST POP PUSH2 0x1D6 PUSH2 0x513 JUMP JUMPDEST PUSH1 0x40 MLOAD PUSH2 0x1E3 SWAP2 SWAP1 PUSH2 0xC3D JUMP JUMPDEST PUSH1 0x40 MLOAD DUP1 SWAP2 SUB SWAP1 RETURN JUMPDEST CALLVALUE DUP1 ISZERO PUSH2 0x1F7 JUMPI PUSH0 DUP1 REVERT JUMPDEST POP PUSH2 0x212 PUSH1 0x4 DUP1 CALLDATASIZE SUB DUP2 ADD SWAP1 PUSH2 0x20D SWAP2 SWAP1 PUSH2 0xC80 JUMP JUMPDEST PUSH2 0x536 JUMP JUMPDEST STOP JUMPDEST CALLVALUE DUP1 ISZERO PUSH2 0x21F JUMPI PUSH0 DUP1 REVERT JUMPDEST POP PUSH2 0x23A PUSH1 0x4 DUP1 CALLDATASIZE SUB DUP2 ADD SWAP1 PUSH2 0x235 SWAP2 SWAP1 PUSH2 0xDE7 JUMP JUMPDEST PUSH2 0x7EA JUMP JUMPDEST PUSH1 0x40 MLOAD PUSH2 0x247 SWAP2 SWAP1 PUSH2 0xECD JUMP JUMPDEST PUSH1 0x40 MLOAD DUP1 SWAP2 SUB SWAP1 RETURN JUMPDEST PUSH1 0x3 PUSH1 0x20 MSTORE DUP1 PUSH0 MSTORE PUSH1 0x40 PUSH0 KECCAK256 PUSH0 SWAP2 POP SLOAD SWAP1 PUSH2 0x100 EXP SWAP1 DIV PUSH1 0xFF AND DUP2 JUMP JUMPDEST PUSH1 0x2 PUSH1 0x20 MSTORE DUP1 PUSH0 MSTORE PUSH1 0x40 PUSH0 KECCAK256 PUSH0 SWAP2 POP SLOAD SWAP1 PUSH2 0x100 EXP SWAP1 DIV PUSH1 0xFF AND DUP2 JUMP JUMPDEST PUSH0 DUP1 SLOAD SWAP1 PUSH2 0x100 EXP SWAP1 DIV PUSH20 0xFFFFFFFFFFFFFFFFFFFFFFFFFFFFFFFFFFFFFFFF AND PUSH20 0xFFFFFFFFFFFFFFFFFFFFFFFFFFFFFFFFFFFFFFFF AND CALLER PUSH20 0xFFFFFFFFFFFFFFFFFFFFFFFFFFFFFFFFFFFFFFFF AND EQ PUSH2 0x317 JUMPI PUSH1 0x40 MLOAD PUSH32 0x8C379A000000000000000000000000000000000000000000000000000000000 DUP2 MSTORE PUSH1 0x4 ADD PUSH2 0x30E SWAP1 PUSH2 0xF47 JUMP JUMPDEST PUSH1 0x40 MLOAD DUP1 SWAP2 SUB SWAP1 REVERT JUMPDEST DUP1 PUSH1 0x1 PUSH0 DUP5 PUSH20 0xFFFFFFFFFFFFFFFFFFFFFFFFFFFFFFFFFFFFFFFF AND PUSH20 0xFFFFFFFFFFFFFFFFFFFFFFFFFFFFFFFFFFFFFFFF AND DUP2 MSTORE PUSH1 0x20 ADD SWAP1 DUP2 MSTORE PUSH1 0x20 ADD PUSH0 KECCAK256 DUP2 SWAP1 SSTORE POP PUSH0 DUP2 GT ISZERO PUSH2 0x3BB JUMPI PUSH1 0x1 PUSH1 0x2 PUSH0 DUP5 PUSH20 0xFFFFFFFFFFFFFFFFFFFFFFFFFFFFFFFFFFFFFFFF AND PUSH20 0xFFFFFFFFFFFFFFFFFFFFFFFFFFFFFFFFFFFFFFFF AND DUP2 MSTORE PUSH1 0x20 ADD SWAP1 DUP2 MSTORE PUSH1 0x20 ADD PUSH0 KECCAK256 PUSH0 PUSH2 0x100 EXP DUP2 SLOAD DUP2 PUSH1 0xFF MUL NOT AND SWAP1 DUP4 ISZERO ISZERO MUL OR SWAP1 SSTORE POP PUSH2 0x410 JUMP JUMPDEST PUSH0 PUSH1 0x2 PUSH0 DUP5 PUSH20 0xFFFFFFFFFFFFFFFFFFFFFFFFFFFFFFFFFFFFFFFF AND PUSH20 0xFFFFFFFFFFFFFFFFFFFFFFFFFFFFFFFFFFFFFFFF AND DUP2 MSTORE PUSH1 0x20 ADD SWAP1 DUP2 MSTORE PUSH1 0x20 ADD PUSH0 KECCAK256 PUSH0 PUSH2 0x100 EXP DUP2 SLOAD DUP2 PUSH1 0xFF MUL NOT AND SWAP1 DUP4 ISZERO ISZERO MUL OR SWAP1 SSTORE POP JUMPDEST POP POP JUMP JUMPDEST PUSH0 DUP1 SLOAD SWAP1 PUSH2 0x100 EXP SWAP1 DIV PUSH20 0xFFFFFFFFFFFFFFFFFFFFFFFFFFFFFFFFFFFFFFFF AND PUSH20 0xFFFFFFFFFFFFFFFFFFFFFFFFFFFFFFFFFFFFFFFF AND CALLER PUSH20 0xFFFFFFFFFFFFFFFFFFFFFFFFFFFFFFFFFFFFFFFF AND EQ PUSH2 0x4A1 JUMPI PUSH1 0x40 MLOAD PUSH32 0x8C379A000000000000000000000000000000000000000000000000000000000 DUP2 MSTORE PUSH1 0x4 ADD PUSH2 0x498 SWAP1 PUSH2 0xF47 JUMP JUMPDEST PUSH1 0x40 MLOAD DUP1 SWAP2 SUB SWAP1 REVERT JUMPDEST DUP1 PUSH1 0x3 PUSH0 DUP5 PUSH20 0xFFFFFFFFFFFFFFFFFFFFFFFFFFFFFFFFFFFFFFFF AND PUSH20 0xFFFFFFFFFFFFFFFFFFFFFFFFFFFFFFFFFFFFFFFF AND DUP2 MSTORE PUSH1 0x20 ADD SWAP1 DUP2 MSTORE PUSH1 0x20 ADD PUSH0 KECCAK256 PUSH0 PUSH2 0x100 EXP DUP2 SLOAD DUP2 PUSH1 0xFF MUL NOT AND SWAP1 DUP4 ISZERO ISZERO MUL OR SWAP1 SSTORE POP POP POP JUMP JUMPDEST PUSH1 0x1 PUSH1 0x20 MSTORE DUP1 PUSH0 MSTORE PUSH1 0x40 PUSH0 KECCAK256 PUSH0 SWAP2 POP SWAP1 POP SLOAD DUP2 JUMP JUMPDEST PUSH1 0x3 DUP2 JUMP JUMPDEST PUSH0 DUP1 SLOAD SWAP1 PUSH2 0x100 EXP SWAP1 DIV PUSH20 0xFFFFFFFFFFFFFFFFFFFFFFFFFFFFFFFFFFFFFFFF AND DUP2 JUMP JUMPDEST PUSH1 0x3 PUSH0 CALLER PUSH20 0xFFFFFFFFFFFFFFFFFFFFFFFFFFFFFFFFFFFFFFFF AND PUSH20 0xFFFFFFFFFFFFFFFFFFFFFFFFFFFFFFFFFFFFFFFF AND DUP2 MSTORE PUSH1 0x20 ADD SWAP1 DUP2 MSTORE PUSH1 0x20 ADD PUSH0 KECCAK256 PUSH0 SWAP1 SLOAD SWAP1 PUSH2 0x100 EXP SWAP1 DIV PUSH1 0xFF AND PUSH2 0x5BF JUMPI PUSH1 0x40 MLOAD PUSH32 0x8C379A000000000000000000000000000000000000000000000000000000000 DUP2 MSTORE PUSH1 0x4 ADD PUSH2 0x5B6 SWAP1 PUSH2 0xFD5 JUMP JUMPDEST PUSH1 0x40 MLOAD DUP1 SWAP2 SUB SWAP1 REVERT JUMPDEST PUSH0 ISZERO ISZERO PUSH1 0x6 PUSH0 DUP4 PUSH20 0xFFFFFFFFFFFFFFFFFFFFFFFFFFFFFFFFFFFFFFFF AND PUSH20 0xFFFFFFFFFFFFFFFFFFFFFFFFFFFFFFFFFFFFFFFF AND DUP2 MSTORE PUSH1 0x20 ADD SWAP1 DUP2 MSTORE PUSH1 0x20 ADD PUSH0 KECCAK256 PUSH0 CALLER PUSH20 0xFFFFFFFFFFFFFFFFFFFFFFFFFFFFFFFFFFFFFFFF AND PUSH20 0xFFFFFFFFFFFFFFFFFFFFFFFFFFFFFFFFFFFFFFFF AND DUP2 MSTORE PUSH1 0x20 ADD SWAP1 DUP2 MSTORE PUSH1 0x20 ADD PUSH0 KECCAK256 PUSH0 SWAP1 SLOAD SWAP1 PUSH2 0x100 EXP SWAP1 DIV PUSH1 0xFF AND ISZERO ISZERO EQ PUSH2 0x689 JUMPI PUSH1 0x40 MLOAD PUSH32 0x8C379A000000000000000000000000000000000000000000000000000000000 DUP2 MSTORE PUSH1 0x4 ADD PUSH2 0x680 SWAP1 PUSH2 0x103D JUMP JUMPDEST PUSH1 0x40 MLOAD DUP1 SWAP2 SUB SWAP1 REVERT JUMPDEST PUSH1 0x4 PUSH0 SWAP1 SLOAD SWAP1 PUSH2 0x100 EXP SWAP1 DIV PUSH20 0xFFFFFFFFFFFFFFFFFFFFFFFFFFFFFFFFFFFFFFFF AND PUSH20 0xFFFFFFFFFFFFFFFFFFFFFFFFFFFFFFFFFFFFFFFF AND DUP2 PUSH20 0xFFFFFFFFFFFFFFFFFFFFFFFFFFFFFFFFFFFFFFFF AND EQ PUSH2 0x725 JUMPI DUP1 PUSH1 0x4 PUSH0 PUSH2 0x100 EXP DUP2 SLOAD DUP2 PUSH20 0xFFFFFFFFFFFFFFFFFFFFFFFFFFFFFFFFFFFFFFFF MUL NOT AND SWAP1 DUP4 PUSH20 0xFFFFFFFFFFFFFFFFFFFFFFFFFFFFFFFFFFFFFFFF AND MUL OR SWAP1 SSTORE POP PUSH0 PUSH1 0x5 DUP2 SWAP1 SSTORE POP JUMPDEST PUSH1 0x5 PUSH0 DUP2 SLOAD DUP1 SWAP3 SWAP2 SWAP1 PUSH2 0x737 SWAP1 PUSH2 0x1088 JUMP JUMPDEST SWAP2 SWAP1 POP SSTORE POP PUSH1 0x3 PUSH1 0x5 SLOAD LT PUSH2 0x7E7 JUMPI PUSH1 0x4 PUSH0 SWAP1 SLOAD SWAP1 PUSH2 0x100 EXP SWAP1 DIV PUSH20 0xFFFFFFFFFFFFFFFFFFFFFFFFFFFFFFFFFFFFFFFF AND PUSH0 DUP1 PUSH2 0x100 EXP DUP2 SLOAD DUP2 PUSH20 0xFFFFFFFFFFFFFFFFFFFFFFFFFFFFFFFFFFFFFFFF MUL NOT AND SWAP1 DUP4 PUSH20 0xFFFFFFFFFFFFFFFFFFFFFFFFFFFFFFFFFFFFFFFF AND MUL OR SWAP1 SSTORE POP PUSH0 PUSH1 0x4 PUSH0 PUSH2 0x100 EXP DUP2 SLOAD DUP2 PUSH20 0xFFFFFFFFFFFFFFFFFFFFFFFFFFFFFFFFFFFFFFFF MUL NOT AND SWAP1 DUP4 PUSH20 0xFFFFFFFFFFFFFFFFFFFFFFFFFFFFFFFFFFFFFFFF AND MUL OR SWAP1 SSTORE POP JUMPDEST POP JUMP JUMPDEST PUSH1 0x60 PUSH0 DUP1 SLOAD SWAP1 PUSH2 0x100 EXP SWAP1 DIV PUSH20 0xFFFFFFFFFFFFFFFFFFFFFFFFFFFFFFFFFFFFFFFF AND PUSH20 0xFFFFFFFFFFFFFFFFFFFFFFFFFFFFFFFFFFFFFFFF AND CALLER PUSH20 0xFFFFFFFFFFFFFFFFFFFFFFFFFFFFFFFFFFFFFFFF AND EQ PUSH2 0x99B JUMPI DUP3 PUSH1 0x1 PUSH0 CALLER PUSH20 0xFFFFFFFFFFFFFFFFFFFFFFFFFFFFFFFFFFFFFFFF AND PUSH20 0xFFFFFFFFFFFFFFFFFFFFFFFFFFFFFFFFFFFFFFFF AND DUP2 MSTORE PUSH1 0x20 ADD SWAP1 DUP2 MSTORE PUSH1 0x20 ADD PUSH0 KECCAK256 SLOAD LT ISZERO PUSH2 0x8BE JUMPI PUSH1 0x40 MLOAD PUSH32 0x8C379A000000000000000000000000000000000000000000000000000000000 DUP2 MSTORE PUSH1 0x4 ADD PUSH2 0x8B5 SWAP1 PUSH2 0x113F JUMP JUMPDEST PUSH1 0x40 MLOAD DUP1 SWAP2 SUB SWAP1 REVERT JUMPDEST PUSH1 0x2 PUSH0 CALLER PUSH20 0xFFFFFFFFFFFFFFFFFFFFFFFFFFFFFFFFFFFFFFFF AND PUSH20 0xFFFFFFFFFFFFFFFFFFFFFFFFFFFFFFFFFFFFFFFF AND DUP2 MSTORE PUSH1 0x20 ADD SWAP1 DUP2 MSTORE PUSH1 0x20 ADD PUSH0 KECCAK256 PUSH0 SWAP1 SLOAD SWAP1 PUSH2 0x100 EXP SWAP1 DIV PUSH1 0xFF AND PUSH2 0x947 JUMPI PUSH1 0x40 MLOAD PUSH32 0x8C379A000000000000000000000000000000000000000000000000000000000 DUP2 MSTORE PUSH1 0x4 ADD PUSH2 0x93E SWAP1 PUSH2 0x11F3 JUMP JUMPDEST PUSH1 0x40 MLOAD DUP1 SWAP2 SUB SWAP1 REVERT JUMPDEST DUP3 PUSH1 0x1 PUSH0 CALLER PUSH20 0xFFFFFFFFFFFFFFFFFFFFFFFFFFFFFFFFFFFFFFFF AND PUSH20 0xFFFFFFFFFFFFFFFFFFFFFFFFFFFFFFFFFFFFFFFF AND DUP2 MSTORE PUSH1 0x20 ADD SWAP1 DUP2 MSTORE PUSH1 0x20 ADD PUSH0 KECCAK256 PUSH0 DUP3 DUP3 SLOAD PUSH2 0x993 SWAP2 SWAP1 PUSH2 0x1211 JUMP JUMPDEST SWAP3 POP POP DUP2 SWAP1 SSTORE POP JUMPDEST PUSH0 DUP1 DUP6 PUSH20 0xFFFFFFFFFFFFFFFFFFFFFFFFFFFFFFFFFFFFFFFF AND DUP6 DUP6 PUSH1 0x40 MLOAD PUSH2 0x9C3 SWAP2 SWAP1 PUSH2 0x127E JUMP JUMPDEST PUSH0 PUSH1 0x40 MLOAD DUP1 DUP4 SUB DUP2 DUP6 DUP8 GAS CALL SWAP3 POP POP POP RETURNDATASIZE DUP1 PUSH0 DUP2 EQ PUSH2 0x9FD JUMPI PUSH1 0x40 MLOAD SWAP2 POP PUSH1 0x1F NOT PUSH1 0x3F RETURNDATASIZE ADD AND DUP3 ADD PUSH1 0x40 MSTORE RETURNDATASIZE DUP3 MSTORE RETURNDATASIZE PUSH0 PUSH1 0x20 DUP5 ADD RETURNDATACOPY PUSH2 0xA02 JUMP JUMPDEST PUSH1 0x60 SWAP2 POP JUMPDEST POP SWAP2 POP SWAP2 POP DUP2 PUSH2 0xA47 JUMPI PUSH1 0x40 MLOAD PUSH32 0x8C379A000000000000000000000000000000000000000000000000000000000 DUP2 MSTORE PUSH1 0x4 ADD PUSH2 0xA3E SWAP1 PUSH2 0x1304 JUMP JUMPDEST PUSH1 0x40 MLOAD DUP1 SWAP2 SUB SWAP1 REVERT JUMPDEST DUP1 SWAP3 POP POP POP SWAP4 SWAP3 POP POP POP JUMP JUMPDEST PUSH0 PUSH1 0x40 MLOAD SWAP1 POP SWAP1 JUMP JUMPDEST PUSH0 DUP1 REVERT JUMPDEST PUSH0 DUP1 REVERT JUMPDEST PUSH0 PUSH20 0xFFFFFFFFFFFFFFFFFFFFFFFFFFFFFFFFFFFFFFFF DUP3 AND SWAP1 POP SWAP2 SWAP1 POP JUMP JUMPDEST PUSH0 PUSH2 0xA8D DUP3 PUSH2 0xA64 JUMP JUMPDEST SWAP1 POP SWAP2 SWAP1 POP JUMP JUMPDEST PUSH2 0xA9D DUP2 PUSH2 0xA83 JUMP JUMPDEST DUP2 EQ PUSH2 0xAA7 JUMPI PUSH0 DUP1 REVERT JUMPDEST POP JUMP JUMPDEST PUSH0 DUP2 CALLDATALOAD SWAP1 POP PUSH2 0xAB8 DUP2 PUSH2 0xA94 JUMP JUMPDEST SWAP3 SWAP2 POP POP JUMP JUMPDEST PUSH0 PUSH1 0x20 DUP3 DUP5 SUB SLT ISZERO PUSH2 0xAD3 JUMPI PUSH2 0xAD2 PUSH2 0xA5C JUMP JUMPDEST JUMPDEST PUSH0 PUSH2 0xAE0 DUP5 DUP3 DUP6 ADD PUSH2 0xAAA JUMP JUMPDEST SWAP2 POP POP SWAP3 SWAP2 POP POP JUMP JUMPDEST PUSH0 DUP2 ISZERO ISZERO SWAP1 POP SWAP2 SWAP1 POP JUMP JUMPDEST PUSH2 0xAFD DUP2 PUSH2 0xAE9 JUMP JUMPDEST DUP3 MSTORE POP POP JUMP JUMPDEST PUSH0 PUSH1 0x20 DUP3 ADD SWAP1 POP PUSH2 0xB16 PUSH0 DUP4 ADD DUP5 PUSH2 0xAF4 JUMP JUMPDEST SWAP3 SWAP2 POP POP JUMP JUMPDEST PUSH0 DUP2 SWAP1 POP SWAP2 SWAP1 POP JUMP JUMPDEST PUSH2 0xB2E DUP2 PUSH2 0xB1C JUMP JUMPDEST DUP2 EQ PUSH2 0xB38 JUMPI PUSH0 DUP1 REVERT JUMPDEST POP JUMP JUMPDEST PUSH0 DUP2 CALLDATALOAD SWAP1 POP PUSH2 0xB49 DUP2 PUSH2 0xB25 JUMP JUMPDEST SWAP3 SWAP2 POP POP JUMP JUMPDEST PUSH0 DUP1 PUSH1 0x40 DUP4 DUP6 SUB SLT ISZERO PUSH2 0xB65 JUMPI PUSH2 0xB64 PUSH2 0xA5C JUMP JUMPDEST JUMPDEST PUSH0 PUSH2 0xB72 DUP6 DUP3 DUP7 ADD PUSH2 0xAAA JUMP JUMPDEST SWAP3 POP POP PUSH1 0x20 PUSH2 0xB83 DUP6 DUP3 DUP7 ADD PUSH2 0xB3B JUMP JUMPDEST SWAP2 POP POP SWAP3 POP SWAP3 SWAP1 POP JUMP JUMPDEST PUSH2 0xB96 DUP2 PUSH2 0xAE9 JUMP JUMPDEST DUP2 EQ PUSH2 0xBA0 JUMPI PUSH0 DUP1 REVERT JUMPDEST POP JUMP JUMPDEST PUSH0 DUP2 CALLDATALOAD SWAP1 POP PUSH2 0xBB1 DUP2 PUSH2 0xB8D JUMP JUMPDEST SWAP3 SWAP2 POP POP JUMP JUMPDEST PUSH0 DUP1 PUSH1 0x40 DUP4 DUP6 SUB SLT ISZERO PUSH2 0xBCD JUMPI PUSH2 0xBCC PUSH2 0xA5C JUMP JUMPDEST JUMPDEST PUSH0 PUSH2 0xBDA DUP6 DUP3 DUP7 ADD PUSH2 0xAAA JUMP JUMPDEST SWAP3 POP POP PUSH1 0x20 PUSH2 0xBEB DUP6 DUP3 DUP7 ADD PUSH2 0xBA3 JUMP JUMPDEST SWAP2 POP POP SWAP3 POP SWAP3 SWAP1 POP JUMP JUMPDEST PUSH2 0xBFE DUP2 PUSH2 0xB1C JUMP JUMPDEST DUP3 MSTORE POP POP JUMP JUMPDEST PUSH0 PUSH1 0x20 DUP3 ADD SWAP1 POP PUSH2 0xC17 PUSH0 DUP4 ADD DUP5 PUSH2 0xBF5 JUMP JUMPDEST SWAP3 SWAP2 POP POP JUMP JUMPDEST PUSH0 PUSH2 0xC27 DUP3 PUSH2 0xA64 JUMP JUMPDEST SWAP1 POP SWAP2 SWAP1 POP JUMP JUMPDEST PUSH2 0xC37 DUP2 PUSH2 0xC1D JUMP JUMPDEST DUP3 MSTORE POP POP JUMP JUMPDEST PUSH0 PUSH1 0x20 DUP3 ADD SWAP1 POP PUSH2 0xC50 PUSH0 DUP4 ADD DUP5 PUSH2 0xC2E JUMP JUMPDEST SWAP3 SWAP2 POP POP JUMP JUMPDEST PUSH2 0xC5F DUP2 PUSH2 0xC1D JUMP JUMPDEST DUP2 EQ PUSH2 0xC69 JUMPI PUSH0 DUP1 REVERT JUMPDEST POP JUMP JUMPDEST PUSH0 DUP2 CALLDATALOAD SWAP1 POP PUSH2 0xC7A DUP2 PUSH2 0xC56 JUMP JUMPDEST SWAP3 SWAP2 POP POP JUMP JUMPDEST PUSH0 PUSH1 0x20 DUP3 DUP5 SUB SLT ISZERO PUSH2 0xC95 JUMPI PUSH2 0xC94 PUSH2 0xA5C JUMP JUMPDEST JUMPDEST PUSH0 PUSH2 0xCA2 DUP5 DUP3 DUP6 ADD PUSH2 0xC6C JUMP JUMPDEST SWAP2 POP POP SWAP3 SWAP2 POP POP JUMP JUMPDEST PUSH0 DUP1 REVERT JUMPDEST PUSH0 DUP1 REVERT JUMPDEST PUSH0 PUSH1 0x1F NOT PUSH1 0x1F DUP4 ADD AND SWAP1 POP SWAP2 SWAP1 POP JUMP JUMPDEST PUSH32 0x4E487B7100000000000000000000000000000000000000000000000000000000 PUSH0 MSTORE PUSH1 0x41 PUSH1 0x4 MSTORE PUSH1 0x24 PUSH0 REVERT JUMPDEST PUSH2 0xCF9 DUP3 PUSH2 0xCB3 JUMP JUMPDEST DUP2 ADD DUP2 DUP2 LT PUSH8 0xFFFFFFFFFFFFFFFF DUP3 GT OR ISZERO PUSH2 0xD18 JUMPI PUSH2 0xD17 PUSH2 0xCC3 JUMP JUMPDEST JUMPDEST DUP1 PUSH1 0x40 MSTORE POP POP POP JUMP JUMPDEST PUSH0 PUSH2 0xD2A PUSH2 0xA53 JUMP JUMPDEST SWAP1 POP PUSH2 0xD36 DUP3 DUP3 PUSH2 0xCF0 JUMP JUMPDEST SWAP2 SWAP1 POP JUMP JUMPDEST PUSH0 PUSH8 0xFFFFFFFFFFFFFFFF DUP3 GT ISZERO PUSH2 0xD55 JUMPI PUSH2 0xD54 PUSH2 0xCC3 JUMP JUMPDEST JUMPDEST PUSH2 0xD5E DUP3 PUSH2 0xCB3 JUMP JUMPDEST SWAP1 POP PUSH1 0x20 DUP2 ADD SWAP1 POP SWAP2 SWAP1 POP JUMP JUMPDEST DUP3 DUP2 DUP4 CALLDATACOPY PUSH0 DUP4 DUP4 ADD MSTORE POP POP POP JUMP JUMPDEST PUSH0 PUSH2 0xD8B PUSH2 0xD86 DUP5 PUSH2 0xD3B JUMP JUMPDEST PUSH2 0xD21 JUMP JUMPDEST SWAP1 POP DUP3 DUP2 MSTORE PUSH1 0x20 DUP2 ADD DUP5 DUP5 DUP5 ADD GT ISZERO PUSH2 0xDA7 JUMPI PUSH2 0xDA6 PUSH2 0xCAF JUMP JUMPDEST JUMPDEST PUSH2 0xDB2 DUP5 DUP3 DUP6 PUSH2 0xD6B JUMP JUMPDEST POP SWAP4 SWAP3 POP POP POP JUMP JUMPDEST PUSH0 DUP3 PUSH1 0x1F DUP4 ADD SLT PUSH2 0xDCE JUMPI PUSH2 0xDCD PUSH2 0xCAB JUMP JUMPDEST JUMPDEST DUP2 CALLDATALOAD PUSH2 0xDDE DUP5 DUP3 PUSH1 0x20 DUP7 ADD PUSH2 0xD79 JUMP JUMPDEST SWAP2 POP POP SWAP3 SWAP2 POP POP JUMP JUMPDEST PUSH0 DUP1 PUSH0 PUSH1 0x60 DUP5 DUP7 SUB SLT ISZERO PUSH2 0xDFE JUMPI PUSH2 0xDFD PUSH2 0xA5C JUMP JUMPDEST JUMPDEST PUSH0 PUSH2 0xE0B DUP7 DUP3 DUP8 ADD PUSH2 0xC6C JUMP JUMPDEST SWAP4 POP POP PUSH1 0x20 PUSH2 0xE1C DUP7 DUP3 DUP8 ADD PUSH2 0xB3B JUMP JUMPDEST SWAP3 POP POP PUSH1 0x40 DUP5 ADD CALLDATALOAD PUSH8 0xFFFFFFFFFFFFFFFF DUP2 GT ISZERO PUSH2 0xE3D JUMPI PUSH2 0xE3C PUSH2 0xA60 JUMP JUMPDEST JUMPDEST PUSH2 0xE49 DUP7 DUP3 DUP8 ADD PUSH2 0xDBA JUMP JUMPDEST SWAP2 POP POP SWAP3 POP SWAP3 POP SWAP3 JUMP JUMPDEST PUSH0 DUP2 MLOAD SWAP1 POP SWAP2 SWAP1 POP JUMP JUMPDEST PUSH0 DUP3 DUP3 MSTORE PUSH1 0x20 DUP3 ADD SWAP1 POP SWAP3 SWAP2 POP POP JUMP JUMPDEST PUSH0 JUMPDEST DUP4 DUP2 LT ISZERO PUSH2 0xE8A JUMPI DUP1 DUP3 ADD MLOAD DUP2 DUP5 ADD MSTORE PUSH1 0x20 DUP2 ADD SWAP1 POP PUSH2 0xE6F JUMP JUMPDEST PUSH0 DUP5 DUP5 ADD MSTORE POP POP POP POP JUMP JUMPDEST PUSH0 PUSH2 0xE9F DUP3 PUSH2 0xE53 JUMP JUMPDEST PUSH2 0xEA9 DUP2 DUP6 PUSH2 0xE5D JUMP JUMPDEST SWAP4 POP PUSH2 0xEB9 DUP2 DUP6 PUSH1 0x20 DUP7 ADD PUSH2 0xE6D JUMP JUMPDEST PUSH2 0xEC2 DUP2 PUSH2 0xCB3 JUMP JUMPDEST DUP5 ADD SWAP2 POP POP SWAP3 SWAP2 POP POP JUMP JUMPDEST PUSH0 PUSH1 0x20 DUP3 ADD SWAP1 POP DUP2 DUP2 SUB PUSH0 DUP4 ADD MSTORE PUSH2 0xEE5 DUP2 DUP5 PUSH2 0xE95 JUMP JUMPDEST SWAP1 POP SWAP3 SWAP2 POP POP JUMP JUMPDEST PUSH0 DUP3 DUP3 MSTORE PUSH1 0x20 DUP3 ADD SWAP1 POP SWAP3 SWAP2 POP POP JUMP JUMPDEST PUSH32 0x596F7520617265206E6F7420746865204F776E65722C2041626F7274696E6721 PUSH0 DUP3 ADD MSTORE POP JUMP JUMPDEST PUSH0 PUSH2 0xF31 PUSH1 0x20 DUP4 PUSH2 0xEED JUMP JUMPDEST SWAP2 POP PUSH2 0xF3C DUP3 PUSH2 0xEFD JUMP JUMPDEST PUSH1 0x20 DUP3 ADD SWAP1 POP SWAP2 SWAP1 POP JUMP JUMPDEST PUSH0 PUSH1 0x20 DUP3 ADD SWAP1 POP DUP2 DUP2 SUB PUSH0 DUP4 ADD MSTORE PUSH2 0xF5E DUP2 PUSH2 0xF25 JUMP JUMPDEST SWAP1 POP SWAP2 SWAP1 POP JUMP JUMPDEST PUSH32 0x596F7520617265206E6F74206120477561726469616E204F6620546869732057 PUSH0 DUP3 ADD MSTORE PUSH32 0x616C6C65742C2041626F7274696E672100000000000000000000000000000000 PUSH1 0x20 DUP3 ADD MSTORE POP JUMP JUMPDEST PUSH0 PUSH2 0xFBF PUSH1 0x30 DUP4 PUSH2 0xEED JUMP JUMPDEST SWAP2 POP PUSH2 0xFCA DUP3 PUSH2 0xF65 JUMP JUMPDEST PUSH1 0x40 DUP3 ADD SWAP1 POP SWAP2 SWAP1 POP JUMP JUMPDEST PUSH0 PUSH1 0x20 DUP3 ADD SWAP1 POP DUP2 DUP2 SUB PUSH0 DUP4 ADD MSTORE PUSH2 0xFEC DUP2 PUSH2 0xFB3 JUMP JUMPDEST SWAP1 POP SWAP2 SWAP1 POP JUMP JUMPDEST PUSH32 0x596F7520616C726561647920766F7465642C2041626F7274696E672100000000 PUSH0 DUP3 ADD MSTORE POP JUMP JUMPDEST PUSH0 PUSH2 0x1027 PUSH1 0x1C DUP4 PUSH2 0xEED JUMP JUMPDEST SWAP2 POP PUSH2 0x1032 DUP3 PUSH2 0xFF3 JUMP JUMPDEST PUSH1 0x20 DUP3 ADD SWAP1 POP SWAP2 SWAP1 POP JUMP JUMPDEST PUSH0 PUSH1 0x20 DUP3 ADD SWAP1 POP DUP2 DUP2 SUB PUSH0 DUP4 ADD MSTORE PUSH2 0x1054 DUP2 PUSH2 0x101B JUMP JUMPDEST SWAP1 POP SWAP2 SWAP1 POP JUMP JUMPDEST PUSH32 0x4E487B7100000000000000000000000000000000000000000000000000000000 PUSH0 MSTORE PUSH1 0x11 PUSH1 0x4 MSTORE PUSH1 0x24 PUSH0 REVERT JUMPDEST PUSH0 PUSH2 0x1092 DUP3 PUSH2 0xB1C JUMP JUMPDEST SWAP2 POP PUSH32 0xFFFFFFFFFFFFFFFFFFFFFFFFFFFFFFFFFFFFFFFFFFFFFFFFFFFFFFFFFFFFFFFF DUP3 SUB PUSH2 0x10C4 JUMPI PUSH2 0x10C3 PUSH2 0x105B JUMP JUMPDEST JUMPDEST PUSH1 0x1 DUP3 ADD SWAP1 POP SWAP2 SWAP1 POP JUMP JUMPDEST PUSH32 0x596F752061726520747279696E6720746F2073656E64206D6F7265207468616E PUSH0 DUP3 ADD MSTORE PUSH32 0x20796F752061726520616C6C6F77656420746F2C2041626F7274696E67210000 PUSH1 0x20 DUP3 ADD MSTORE POP JUMP JUMPDEST PUSH0 PUSH2 0x1129 PUSH1 0x3E DUP4 PUSH2 0xEED JUMP JUMPDEST SWAP2 POP PUSH2 0x1134 DUP3 PUSH2 0x10CF JUMP JUMPDEST PUSH1 0x40 DUP3 ADD SWAP1 POP SWAP2 SWAP1 POP JUMP JUMPDEST PUSH0 PUSH1 0x20 DUP3 ADD SWAP1 POP DUP2 DUP2 SUB PUSH0 DUP4 ADD MSTORE PUSH2 0x1156 DUP2 PUSH2 0x111D JUMP JUMPDEST SWAP1 POP SWAP2 SWAP1 POP JUMP JUMPDEST PUSH32 0x596F7520617265206E6F7420616C6C6F77656420746F2073656E6420616E7974 PUSH0 DUP3 ADD MSTORE PUSH32 0x68696E672066726F6D207468697320736D61727420636F6E74726163742C2041 PUSH1 0x20 DUP3 ADD MSTORE PUSH32 0x626F7274696E6721000000000000000000000000000000000000000000000000 PUSH1 0x40 DUP3 ADD MSTORE POP JUMP JUMPDEST PUSH0 PUSH2 0x11DD PUSH1 0x48 DUP4 PUSH2 0xEED JUMP JUMPDEST SWAP2 POP PUSH2 0x11E8 DUP3 PUSH2 0x115D JUMP JUMPDEST PUSH1 0x60 DUP3 ADD SWAP1 POP SWAP2 SWAP1 POP JUMP JUMPDEST PUSH0 PUSH1 0x20 DUP3 ADD SWAP1 POP DUP2 DUP2 SUB PUSH0 DUP4 ADD MSTORE PUSH2 0x120A DUP2 PUSH2 0x11D1 JUMP JUMPDEST SWAP1 POP SWAP2 SWAP1 POP JUMP JUMPDEST PUSH0 PUSH2 0x121B DUP3 PUSH2 0xB1C JUMP JUMPDEST SWAP2 POP PUSH2 0x1226 DUP4 PUSH2 0xB1C JUMP JUMPDEST SWAP3 POP DUP3 DUP3 SUB SWAP1 POP DUP2 DUP2 GT ISZERO PUSH2 0x123E JUMPI PUSH2 0x123D PUSH2 0x105B JUMP JUMPDEST JUMPDEST SWAP3 SWAP2 POP POP JUMP JUMPDEST PUSH0 DUP2 SWAP1 POP SWAP3 SWAP2 POP POP JUMP JUMPDEST PUSH0 PUSH2 0x1258 DUP3 PUSH2 0xE53 JUMP JUMPDEST PUSH2 0x1262 DUP2 DUP6 PUSH2 0x1244 JUMP JUMPDEST SWAP4 POP PUSH2 0x1272 DUP2 DUP6 PUSH1 0x20 DUP7 ADD PUSH2 0xE6D JUMP JUMPDEST DUP1 DUP5 ADD SWAP2 POP POP SWAP3 SWAP2 POP POP JUMP JUMPDEST PUSH0 PUSH2 0x1289 DUP3 DUP5 PUSH2 0x124E JUMP JUMPDEST SWAP2 POP DUP2 SWAP1 POP SWAP3 SWAP2 POP POP JUMP JUMPDEST PUSH32 0x41626F7274696E672C2043616C6C20776173206E6F7420537563636573736675 PUSH0 DUP3 ADD MSTORE PUSH32 0x6C00000000000000000000000000000000000000000000000000000000000000 PUSH1 0x20 DUP3 ADD MSTORE POP JUMP JUMPDEST PUSH0 PUSH2 0x12EE PUSH1 0x21 DUP4 PUSH2 0xEED JUMP JUMPDEST SWAP2 POP PUSH2 0x12F9 DUP3 PUSH2 0x1294 JUMP JUMPDEST PUSH1 0x40 DUP3 ADD SWAP1 POP SWAP2 SWAP1 POP JUMP JUMPDEST PUSH0 PUSH1 0x20 DUP3 ADD SWAP1 POP DUP2 DUP2 SUB PUSH0 DUP4 ADD MSTORE PUSH2 0x131B DUP2 PUSH2 0x12E2 JUMP JUMPDEST SWAP1 POP SWAP2 SWAP1 POP JUMP INVALID LOG2 PUSH5 0x6970667358 0x22 SLT KECCAK256 0xBF PUSH23 0x30F8918B8C5BE35CE09B1FBBB0FE79259691FB4157812A PUSH20 0x295DB5B033164736F6C63430008160033000000 "
				},
				"gasEstimates": {
					"creation": {
						"codeDepositCost": "990400",
						"executionCost": "25290",
						"totalCost": "1015690"
					},
					"external": {
						"allowance(address)": "2802",
						"confirmationFromGuardiansForReset()": "347",
						"guardians(address)": "2834",
						"isAllowedToSend(address)": "2856",
						"owner()": "2549",
						"proposeNewOwner(address)": "63024",
						"setAllowance(address,uint256)": "49423",
						"setGuardians(address,bool)": "27213",
						"transfer(address,uint256,bytes)": "infinite"
					}
				},
				"methodIdentifiers": {
					"allowance(address)": "3e5beab9",
					"confirmationFromGuardiansForReset()": "58e404b1",
					"guardians(address)": "0633b14a",
					"isAllowedToSend(address)": "0bc605ad",
					"owner()": "8da5cb5b",
					"proposeNewOwner(address)": "b1f8100d",
					"setAllowance(address,uint256)": "310ec4a7",
					"setGuardians(address,bool)": "35be453b",
					"transfer(address,uint256,bytes)": "be45fd62"
				}
			},
			"storageLayout": {
				"storage": [
					{
						"astId": 20,
						"contract": "contracts/ERC20_Token_Sale.sol/Smart_Wallet.sol:SmartWallet",
						"label": "owner",
						"offset": 0,
						"slot": "0",
						"type": "t_address_payable"
					},
					{
						"astId": 24,
						"contract": "contracts/ERC20_Token_Sale.sol/Smart_Wallet.sol:SmartWallet",
						"label": "allowance",
						"offset": 0,
						"slot": "1",
						"type": "t_mapping(t_address,t_uint256)"
					},
					{
						"astId": 28,
						"contract": "contracts/ERC20_Token_Sale.sol/Smart_Wallet.sol:SmartWallet",
						"label": "isAllowedToSend",
						"offset": 0,
						"slot": "2",
						"type": "t_mapping(t_address,t_bool)"
					},
					{
						"astId": 32,
						"contract": "contracts/ERC20_Token_Sale.sol/Smart_Wallet.sol:SmartWallet",
						"label": "guardians",
						"offset": 0,
						"slot": "3",
						"type": "t_mapping(t_address,t_bool)"
					},
					{
						"astId": 34,
						"contract": "contracts/ERC20_Token_Sale.sol/Smart_Wallet.sol:SmartWallet",
						"label": "nextOwner",
						"offset": 0,
						"slot": "4",
						"type": "t_address_payable"
					},
					{
						"astId": 36,
						"contract": "contracts/ERC20_Token_Sale.sol/Smart_Wallet.sol:SmartWallet",
						"label": "guardiansResetCount",
						"offset": 0,
						"slot": "5",
						"type": "t_uint256"
					},
					{
						"astId": 45,
						"contract": "contracts/ERC20_Token_Sale.sol/Smart_Wallet.sol:SmartWallet",
						"label": "nextOwnerGuardianVotedBool",
						"offset": 0,
						"slot": "6",
						"type": "t_mapping(t_address,t_mapping(t_address,t_bool))"
					}
				],
				"types": {
					"t_address": {
						"encoding": "inplace",
						"label": "address",
						"numberOfBytes": "20"
					},
					"t_address_payable": {
						"encoding": "inplace",
						"label": "address payable",
						"numberOfBytes": "20"
					},
					"t_bool": {
						"encoding": "inplace",
						"label": "bool",
						"numberOfBytes": "1"
					},
					"t_mapping(t_address,t_bool)": {
						"encoding": "mapping",
						"key": "t_address",
						"label": "mapping(address => bool)",
						"numberOfBytes": "32",
						"value": "t_bool"
					},
					"t_mapping(t_address,t_mapping(t_address,t_bool))": {
						"encoding": "mapping",
						"key": "t_address",
						"label": "mapping(address => mapping(address => bool))",
						"numberOfBytes": "32",
						"value": "t_mapping(t_address,t_bool)"
					},
					"t_mapping(t_address,t_uint256)": {
						"encoding": "mapping",
						"key": "t_address",
						"label": "mapping(address => uint256)",
						"numberOfBytes": "32",
						"value": "t_uint256"
					},
					"t_uint256": {
						"encoding": "inplace",
						"label": "uint256",
						"numberOfBytes": "32"
					}
				}
			},
			"userdoc": {
				"kind": "user",
				"methods": {},
				"version": 1
			}
		}
	}
}